{
  "contractName": "ChainlinkOracle",
  "abi": [
    {
      "inputs": [
        {
          "internalType": "bool",
          "name": "addBasePriceFeeds",
          "type": "bool"
        }
      ],
      "stateMutability": "nonpayable",
      "type": "constructor"
    },
    {
      "anonymous": false,
      "inputs": [
        {
          "indexed": true,
          "internalType": "address",
          "name": "previousOwner",
          "type": "address"
        },
        {
          "indexed": true,
          "internalType": "address",
          "name": "newOwner",
          "type": "address"
        }
      ],
      "name": "OwnershipTransferred",
      "type": "event"
    },
    {
      "anonymous": false,
      "inputs": [
        {
          "indexed": true,
          "internalType": "address",
          "name": "_token",
          "type": "address"
        },
        {
          "indexed": true,
          "internalType": "address",
          "name": "_priceFeed",
          "type": "address"
        }
      ],
      "name": "priceFeedAdded",
      "type": "event"
    },
    {
      "inputs": [],
      "name": "owner",
      "outputs": [
        {
          "internalType": "address",
          "name": "",
          "type": "address"
        }
      ],
      "stateMutability": "view",
      "type": "function"
    },
    {
      "inputs": [],
      "name": "renounceOwnership",
      "outputs": [],
      "stateMutability": "nonpayable",
      "type": "function"
    },
    {
      "inputs": [
        {
          "internalType": "address",
          "name": "newOwner",
          "type": "address"
        }
      ],
      "name": "transferOwnership",
      "outputs": [],
      "stateMutability": "nonpayable",
      "type": "function"
    },
    {
      "inputs": [
        {
          "internalType": "address",
          "name": "_token",
          "type": "address"
        },
        {
          "internalType": "address",
          "name": "_priceFeed",
          "type": "address"
        }
      ],
      "name": "addTokenToPriceFeed",
      "outputs": [],
      "stateMutability": "nonpayable",
      "type": "function"
    },
    {
      "inputs": [
        {
          "internalType": "address",
          "name": "_token",
          "type": "address"
        }
      ],
      "name": "getAllInformationPriceFeed",
      "outputs": [
        {
          "internalType": "uint80",
          "name": "roundID",
          "type": "uint80"
        },
        {
          "internalType": "int256",
          "name": "price",
          "type": "int256"
        },
        {
          "internalType": "uint256",
          "name": "startedAt",
          "type": "uint256"
        },
        {
          "internalType": "uint256",
          "name": "timeStamp",
          "type": "uint256"
        },
        {
          "internalType": "uint80",
          "name": "answeredInRound",
          "type": "uint80"
        }
      ],
      "stateMutability": "view",
      "type": "function"
    },
    {
      "inputs": [
        {
          "internalType": "address",
          "name": "_token",
          "type": "address"
        },
        {
          "internalType": "uint80",
          "name": "_roundId",
          "type": "uint80"
        }
      ],
      "name": "getHistoricalPrice",
      "outputs": [
        {
          "internalType": "int256",
          "name": "price",
          "type": "int256"
        }
      ],
      "stateMutability": "view",
      "type": "function"
    },
    {
      "inputs": [
        {
          "internalType": "address",
          "name": "_token",
          "type": "address"
        }
      ],
      "name": "getOriginalOraclePrice",
      "outputs": [
        {
          "internalType": "int256",
          "name": "price",
          "type": "int256"
        }
      ],
      "stateMutability": "view",
      "type": "function"
    },
    {
      "inputs": [
        {
          "internalType": "address",
          "name": "_token",
          "type": "address"
        }
      ],
      "name": "getOraclePrice",
      "outputs": [
        {
          "internalType": "int256",
          "name": "",
          "type": "int256"
        }
      ],
      "stateMutability": "view",
      "type": "function"
    },
    {
      "inputs": [
        {
          "internalType": "address",
          "name": "_token",
          "type": "address"
        }
      ],
      "name": "getDescriptionOfPriceFeed",
      "outputs": [
        {
          "internalType": "string",
          "name": "",
          "type": "string"
        }
      ],
      "stateMutability": "view",
      "type": "function"
    },
    {
      "inputs": [
        {
          "internalType": "address",
          "name": "_token",
          "type": "address"
        }
      ],
      "name": "getDecimalsOfPriceFeed",
      "outputs": [
        {
          "internalType": "uint8",
          "name": "",
          "type": "uint8"
        }
      ],
      "stateMutability": "view",
      "type": "function"
    },
    {
      "inputs": [
        {
          "internalType": "address",
          "name": "_token",
          "type": "address"
        }
      ],
      "name": "getVersionOfPriceFeed",
      "outputs": [
        {
          "internalType": "uint256",
          "name": "",
          "type": "uint256"
        }
      ],
      "stateMutability": "view",
      "type": "function"
    },
    {
      "inputs": [
        {
          "internalType": "address",
          "name": "_token",
          "type": "address"
        }
      ],
      "name": "getLatestAnswer",
      "outputs": [
        {
          "internalType": "int256",
          "name": "",
          "type": "int256"
        }
      ],
      "stateMutability": "view",
      "type": "function"
    },
    {
      "inputs": [
        {
          "internalType": "bool",
          "name": "_state",
          "type": "bool"
        }
      ],
      "name": "pauseContract",
      "outputs": [
        {
          "internalType": "bool",
          "name": "",
          "type": "bool"
        }
      ],
      "stateMutability": "nonpayable",
      "type": "function"
    },
    {
      "inputs": [
        {
          "internalType": "address",
          "name": "_token",
          "type": "address"
        }
      ],
      "name": "getPriceFeedByToken",
      "outputs": [
        {
          "internalType": "address",
          "name": "",
          "type": "address"
        }
      ],
      "stateMutability": "view",
      "type": "function"
    }
  ],
  "bytecode": "0x60c0604052600a608052600960f91b60a0526000805460ff60a01b191690553480156200002b57600080fd5b50604051620017b8380380620017b88339810160408190526200004e91620002e7565b620000626200005c6200007a565b6200007e565b8015620000735762000073620000ce565b506200037c565b3390565b600080546001600160a01b038381166001600160a01b0319831681178455604051919092169283917f8be0079c531659141344cd1fd0a4f28419497f9722a3daafe3b4186f6b6457e09190a35050565b620000ef6064735498bb86bc934c8d34fda08e81d444153d0d06ad620001f2565b6200011060c973378e78509a907b1ec5c24d9f0243bd39f7a7b007620001f2565b62000144730b0a7c1f6bd2024d930c9ba5be1ed44d93e5724f7331cf013a08c6ac228c94551d535d5bafe19c602a620001f2565b6200017873b767287a7143759f294cfb7b1adbca1140f3de717386d67c3d38d2bcee722e601025c25a575021c6ea620001f2565b6200019a61019373f4060f80f295b34e0c2471461ba43745aeb186d6620001f2565b620001ce731c908ab14d7b1c579a8af8bd2b9530c17c87f9997334c4c526902d88a3aa98db8a9b802603eb1e3470620001f2565b620001f0610195737898accc83587c3c55116c5230c17a6cd9c71bad620001f2565b565b620001fc6200007a565b6001600160a01b03166200020f620002d8565b6001600160a01b031614620002415760405162461bcd60e51b8152600401620002389062000310565b60405180910390fd5b6001600160a01b038216158015906200026257506001600160a01b03811615155b620002815760405162461bcd60e51b8152600401620002389062000345565b6001600160a01b0382811660008181526001602052604080822080546001600160a01b0319169486169485179055517fc4d112bd47eb3e16f93ebd0ceab4a1802deb35c98f239fa31d93d59e45a13ab59190a35050565b6000546001600160a01b031690565b600060208284031215620002f9578081fd5b8151801515811462000309578182fd5b9392505050565b6020808252818101527f4f776e61626c653a2063616c6c6572206973206e6f7420746865206f776e6572604082015260600190565b60208082526015908201527f4d7573742062652076616c696420616464726573730000000000000000000000604082015260600190565b60805160a05160f81c611416620003a2600039600050506000610a7101526114166000f3fe608060405234801561001057600080fd5b50600436106100ea5760003560e01c80636ff9ae1f1161008c5780637ee708d1116100665780637ee708d1146101e55780638da5cb5b14610205578063e272b8921461020d578063f2fde38b1461022d576100ea565b80636ff9ae1f146101a6578063715018a6146101ca57806375f620ac146101d2576100ea565b8063484ebf83116100c8578063484ebf831461014d5780636849a3ba1461016d5780636ae4a216146101805780636c7e874c14610193576100ea565b8063041aa115146100ef578063388a28f5146101045780633a41e1801461012d575b600080fd5b6101026100fd366004610d7f565b610240565b005b610117610112366004610d65565b61031b565b6040516101249190610f62565b60405180910390f35b61014061013b366004610d65565b6103f8565b6040516101249190610f59565b61016061015b366004610d65565b6104cb565b6040516101249190610f3a565b61014061017b366004610d65565b61053e565b61014061018e366004610d65565b6105d2565b6101406101a1366004610db1565b61070c565b6101b96101b4366004610d65565b610828565b604051610124959493929190611155565b610102610943565b6101406101e0366004610d65565b61098e565b6101f86101f3366004610d65565b610aca565b6040516101249190611188565b610160610b96565b61022061021b366004610de7565b610ba5565b6040516101249190610f4e565b61010261023b366004610d65565b610c0f565b610248610c80565b6001600160a01b0316610259610b96565b6001600160a01b0316146102885760405162461bcd60e51b815260040161027f90611054565b60405180910390fd5b6001600160a01b038216158015906102a857506001600160a01b03811615155b6102c45760405162461bcd60e51b815260040161027f906110e6565b6001600160a01b0382811660008181526001602052604080822080546001600160a01b0319169486169485179055517fc4d112bd47eb3e16f93ebd0ceab4a1802deb35c98f239fa31d93d59e45a13ab59190a35050565b6060816001600160a01b0381166103445760405162461bcd60e51b815260040161027f90610fdb565b61034d81610c84565b151560011461036e5760405162461bcd60e51b815260040161027f9061102b565b600061037984610cb6565b9050806001600160a01b0316637284e4166040518163ffffffff1660e01b815260040160006040518083038186803b1580156103b457600080fd5b505afa1580156103c8573d6000803e3d6000fd5b505050506040513d6000823e601f3d908101601f191682016040526103f09190810190610e1f565b949350505050565b6000816001600160a01b0381166104215760405162461bcd60e51b815260040161027f90610fdb565b61042a81610c84565b151560011461044b5760405162461bcd60e51b815260040161027f9061102b565b61045483610cb6565b6001600160a01b03166354fd4d506040518163ffffffff1660e01b815260040160206040518083038186803b15801561048c57600080fd5b505afa1580156104a0573d6000803e3d6000fd5b505050506040513d601f19601f820116820180604052508101906104c49190610e07565b9392505050565b6000816001600160a01b0381166104f45760405162461bcd60e51b815260040161027f90610fdb565b6104fd81610c84565b151560011461051e5760405162461bcd60e51b815260040161027f9061102b565b50506001600160a01b039081166000908152600160205260409020541690565b6000816001600160a01b0381166105675760405162461bcd60e51b815260040161027f90610fdb565b61057081610c84565b15156001146105915760405162461bcd60e51b815260040161027f9061102b565b61059a83610cb6565b6001600160a01b03166350d25bcd6040518163ffffffff1660e01b815260040160206040518083038186803b15801561048c57600080fd5b6000816001600160a01b0381166105fb5760405162461bcd60e51b815260040161027f90610fdb565b61060481610c84565b15156001146106255760405162461bcd60e51b815260040161027f9061102b565b600054600160a01b900460ff161561064f5760405162461bcd60e51b815260040161027f90611115565b600061065a84610cb6565b90506000806000806000856001600160a01b031663feaf968c6040518163ffffffff1660e01b815260040160a06040518083038186803b15801561069d57600080fd5b505afa1580156106b1573d6000803e3d6000fd5b505050506040513d601f19601f820116820180604052508101906106d59190610ec2565b94509450945094509450600082116106ff5760405162461bcd60e51b815260040161027f90611089565b5091979650505050505050565b6000826001600160a01b0381166107355760405162461bcd60e51b815260040161027f90610fdb565b61073e81610c84565b151560011461075f5760405162461bcd60e51b815260040161027f9061102b565b600061076a85610cb6565b90506000806000806000856001600160a01b0316639a6fc8f58a6040518263ffffffff1660e01b81526004016107a0919061113e565b60a06040518083038186803b1580156107b857600080fd5b505afa1580156107cc573d6000803e3d6000fd5b505050506040513d601f19601f820116820180604052508101906107f09190610ec2565b945094509450945094506000821161081a5760405162461bcd60e51b815260040161027f90611089565b509198975050505050505050565b600080808080856001600160a01b0381166108555760405162461bcd60e51b815260040161027f90610fdb565b61085e81610c84565b151560011461087f5760405162461bcd60e51b815260040161027f9061102b565b600061088a88610cb6565b90506000806000806000856001600160a01b031663feaf968c6040518163ffffffff1660e01b815260040160a06040518083038186803b1580156108cd57600080fd5b505afa1580156108e1573d6000803e3d6000fd5b505050506040513d601f19601f820116820180604052508101906109059190610ec2565b945094509450945094506000821161092f5760405162461bcd60e51b815260040161027f90611089565b939c929b5090995097509095509350505050565b61094b610c80565b6001600160a01b031661095c610b96565b6001600160a01b0316146109825760405162461bcd60e51b815260040161027f90611054565b61098c6000610cd4565b565b6000816001600160a01b0381166109b75760405162461bcd60e51b815260040161027f90610fdb565b6109c081610c84565b15156001146109e15760405162461bcd60e51b815260040161027f9061102b565b600054600160a01b900460ff1615610a0b5760405162461bcd60e51b815260040161027f90611115565b6000610a1684610d24565b90506000610a2385610aca565b9050610a2e81610d30565b15156001148015610a42575060008160ff16115b610a5e5760405162461bcd60e51b815260040161027f90611001565b6000610a6b826012611349565b610a95907f00000000000000000000000000000000000000000000000000000000000000006112aa565b610a9f90846112c6565b905060008113610ac15760405162461bcd60e51b815260040161027f906110b9565b95945050505050565b6000816001600160a01b038116610af35760405162461bcd60e51b815260040161027f90610fdb565b610afc81610c84565b1515600114610b1d5760405162461bcd60e51b815260040161027f9061102b565b610b2683610cb6565b6001600160a01b031663313ce5676040518163ffffffff1660e01b815260040160206040518083038186803b158015610b5e57600080fd5b505afa158015610b72573d6000803e3d6000fd5b505050506040513d601f19601f820116820180604052508101906104c49190610f19565b6000546001600160a01b031690565b6000610baf610c80565b6001600160a01b0316610bc0610b96565b6001600160a01b031614610be65760405162461bcd60e51b815260040161027f90611054565b506000805460ff60a01b1916600160a01b8315158102919091179182905560ff9104165b919050565b610c17610c80565b6001600160a01b0316610c28610b96565b6001600160a01b031614610c4e5760405162461bcd60e51b815260040161027f90611054565b6001600160a01b038116610c745760405162461bcd60e51b815260040161027f90610f95565b610c7d81610cd4565b50565b3390565b6001600160a01b0381811660009081526001602052604081205490911615610cae57506001610c0a565b506000610c0a565b6001600160a01b039081166000908152600160205260409020541690565b600080546001600160a01b038381166001600160a01b0319831681178455604051919092169283917f8be0079c531659141344cd1fd0a4f28419497f9722a3daafe3b4186f6b6457e09190a35050565b6000806104c4836105d2565b60006012610d3e8382611349565b60ff1611610cae57506001610c0a565b80356001600160a01b0381168114610c0a57600080fd5b600060208284031215610d76578081fd5b6104c482610d4e565b60008060408385031215610d91578081fd5b610d9a83610d4e565b9150610da860208401610d4e565b90509250929050565b60008060408385031215610dc3578182fd5b610dcc83610d4e565b91506020830135610ddc816113c8565b809150509250929050565b600060208284031215610df8578081fd5b813580151581146104c4578182fd5b600060208284031215610e18578081fd5b5051919050565b600060208284031215610e30578081fd5b815167ffffffffffffffff80821115610e47578283fd5b818401915084601f830112610e5a578283fd5b815181811115610e6c57610e6c6113b2565b604051601f8201601f191681016020018381118282101715610e9057610e906113b2565b604052818152838201602001871015610ea7578485fd5b610eb882602083016020870161136c565b9695505050505050565b600080600080600060a08688031215610ed9578081fd5b8551610ee4816113c8565b809550506020860151935060408601519250606086015191506080860151610f0b816113c8565b809150509295509295909350565b600060208284031215610f2a578081fd5b815160ff811681146104c4578182fd5b6001600160a01b0391909116815260200190565b901515815260200190565b90815260200190565b6000602082528251806020840152610f8181604085016020870161136c565b601f01601f19169190910160400192915050565b60208082526026908201527f4f776e61626c653a206e6577206f776e657220697320746865207a65726f206160408201526564647265737360d01b606082015260800190565b6020808252600c908201526b04e6f204164647265737320360a41b604082015260600190565b60208082526010908201526f696e76616c696420646563696d616c7360801b604082015260600190565b6020808252600f908201526e2737ba103b30b634b2103a37b5b2b760891b604082015260600190565b6020808252818101527f4f776e61626c653a2063616c6c6572206973206e6f7420746865206f776e6572604082015260600190565b602080825260169082015275149bdd5b99081a185cc81b9bdd08199a5b9a5cda195960521b604082015260600190565b602080825260139082015272046696e616c207072696365206d696e7573203606c1b604082015260600190565b6020808252601590820152744d7573742062652076616c6964206164647265737360581b604082015260600190565b6020808252600f908201526e10dbdb9d1c9858dd0814185d5cd959608a1b604082015260600190565b69ffffffffffffffffffff91909116815260200190565b69ffffffffffffffffffff9586168152602081019490945260408401929092526060830152909116608082015260a00190565b60ff91909116815260200190565b80825b60018086116111a857506111d3565b8187048211156111ba576111ba61139c565b808616156111c757918102915b9490941c938002611199565b94509492505050565b60008280156111f257600181146111fc57611205565b60019150506103f0565b829150506103f0565b5081611213575060006103f0565b5060016000821380821461122c57801561124357611255565b82860483111561123e5761123e61139c565b611255565b8286058312156112555761125561139c565b50808316156112615750805b611272858460011c84850284611196565b80870482116000831316156112895761128961139c565b80860582126000831216156112a0576112a061139c565b0295945050505050565b60006104c46001600160ff1b03600160ff1b60ff8616856111dc565b60006001600160ff1b03818413828413808216868404861116156112ec576112ec61139c565b600160ff1b8487128281168783058912161561130a5761130a61139c565b8587129250878205871284841616156113255761132561139c565b8785058712818416161561133b5761133b61139c565b505050929093029392505050565b600060ff821660ff8416808210156113635761136361139c565b90039392505050565b60005b8381101561138757818101518382015260200161136f565b83811115611396576000848401525b50505050565b634e487b7160e01b600052601160045260246000fd5b634e487b7160e01b600052604160045260246000fd5b69ffffffffffffffffffff81168114610c7d57600080fdfea26469706673582212202471ecb8d44f54025b10901f14c3859d8ddce3d278e16e1cb3782a4cbb67249264736f6c63430008000033",
  "immutableReferences": {
    "954": [
      {
        "length": 32,
        "start": 2673
      }
    ]
  },
  "source": "// SPDX-License-Identifier: MIT\r\npragma solidity 0.8.0;\r\n//Template Contract for price feeds\r\nimport \"./interfaces/AggregatorV2V3Interface.sol\";\r\nimport \"./utilities/ContractsListCL.sol\";\r\nimport \"@openzeppelin/contracts/access/Ownable.sol\";\r\n\r\n\r\ncontract ChainlinkOracle is Ownable {\r\n    int256 private immutable exp_base        = 10;\r\n    int8   private immutable base_decimals   = 18;    \r\n    bool   private           contract_paused = false;\r\n\r\n    mapping(address => address) tokenPriceFeedMapping;\r\n    \r\n    event priceFeedAdded(address indexed _token, address indexed _priceFeed);    \r\n\r\n    constructor(bool addBasePriceFeeds){\r\n        if(addBasePriceFeeds)\r\n        {\r\n            addBasePriceFeed();\r\n        }\r\n    } \r\n    \r\n    function addBasePriceFeed() internal{\r\n        addTokenToPriceFeed(ContractsListCL.AVAX_USD, ContractsListCL.CL_AVAX_USD);\r\n        addTokenToPriceFeed(ContractsListCL.BTC_ETH, ContractsListCL.CL_BTC_ETH);\r\n        addTokenToPriceFeed(ContractsListCL.BTC_USD, ContractsListCL.CL_BTC_USD);\r\n        addTokenToPriceFeed(ContractsListCL.ETH_USD, ContractsListCL.CL_ETH_USD);\r\n        addTokenToPriceFeed(ContractsListCL.LINK_ETH, ContractsListCL.CL_LINK_ETH);\r\n        addTokenToPriceFeed(ContractsListCL.LINK_USD, ContractsListCL.CL_LINK_USD);\r\n        addTokenToPriceFeed(ContractsListCL.USDT_USD, ContractsListCL.CL_USDT_USD);\r\n    }    \r\n\r\n    function addTokenToPriceFeed(address _token, address _priceFeed)\r\n        public\r\n        onlyOwner\r\n    {\r\n        require(\r\n            _token != address(0) && _priceFeed != address(0),\r\n            \"Must be valid address\"\r\n        );\r\n        tokenPriceFeedMapping[_token] = _priceFeed;\r\n        emit priceFeedAdded(_token, _priceFeed);\r\n    }\r\n\r\n\r\n    function getAllInformationPriceFeed(address _token)\r\n        public\r\n        view\r\n        validPriceFeed(_token)\r\n        returns (\r\n            uint80 roundID,\r\n            int256 price,\r\n            uint256 startedAt,\r\n            uint256 timeStamp,\r\n            uint80 answeredInRound\r\n        )\r\n    {        \r\n        AggregatorV2V3Interface priceFeed = _getAggregatorV2V3Interface(_token);\r\n        (\r\n            uint80 roundID,\r\n            int256 price,\r\n            uint256 startedAt,\r\n            uint256 timeStamp,\r\n            uint80 answeredInRound\r\n        ) = priceFeed.latestRoundData();\r\n        require(timeStamp > 0, \"Round has not finished\");\r\n        return (roundID, price, startedAt, timeStamp, answeredInRound);\r\n    }\r\n\r\n    function getHistoricalPrice(address _token, uint80 _roundId)\r\n        public\r\n        view\r\n        validPriceFeed(_token)\r\n        returns (int256 price)\r\n    {\r\n        AggregatorV2V3Interface priceFeed = _getAggregatorV2V3Interface(_token);\r\n        (\r\n            uint80 roundID,\r\n            int256 price,\r\n            uint256 startedAt,\r\n            uint256 timeStamp,\r\n            uint80 answeredInRound\r\n        ) = priceFeed.getRoundData(_roundId);\r\n        require(timeStamp > 0, \"Round has not finished\");\r\n        return price;\r\n    }\r\n\r\n    function getOriginalOraclePrice(address _token)\r\n        public\r\n        view\r\n        validPriceFeed(_token)\r\n        contractPaused\r\n        returns (int256 price)\r\n    {\r\n        AggregatorV2V3Interface priceFeed = _getAggregatorV2V3Interface(_token);\r\n        (\r\n            uint80 roundID,\r\n            int256 price,\r\n            uint256 startedAt,\r\n            uint256 timeStamp,\r\n            uint80 answeredInRound\r\n        ) = priceFeed.latestRoundData();\r\n        require(timeStamp > 0, \"Round has not finished\");\r\n        return price;\r\n    }\r\n\r\n    /// @notice Returns Oracle Price for Token saved in <tokenPriceFeedMapping>\r\n    /// @dev the token address have must be added before\r\n    /// @param _token a parameter just like in doxygen (must be followed by parameter name)\r\n    function getOraclePrice(address _token)\r\n        public\r\n        view\r\n        validPriceFeed(_token)\r\n        contractPaused\r\n        returns (int256)\r\n    {\r\n        int256 price = _getConvertPrice(_token);\r\n        uint8 decimals = getDecimalsOfPriceFeed(_token);\r\n        require(\r\n            _validDecimals(decimals) == true && decimals > 0,\r\n            \"invalid decimals\"\r\n        );\r\n        int256 finalPrice = price * exp_base**(18 - decimals);\r\n        require(finalPrice > 0, \"Final price minus 0\");\r\n        return finalPrice;\r\n    }\r\n\r\n    function getDescriptionOfPriceFeed(address _token)\r\n        public\r\n        view\r\n        validPriceFeed(_token)\r\n        returns (string memory)\r\n    {        \r\n        AggregatorV2V3Interface priceFeed = _getAggregatorV2V3Interface(_token);\r\n        return priceFeed.description();\r\n    }\r\n\r\n    function getDecimalsOfPriceFeed(address _token)\r\n        public\r\n        view\r\n        validPriceFeed(_token)\r\n        returns (uint8)\r\n    {\r\n        return _getAggregatorV2V3Interface(_token).decimals();\r\n    }\r\n\r\n    function getVersionOfPriceFeed(address _token)\r\n        public\r\n        view\r\n        validPriceFeed(_token)\r\n        returns (uint256)\r\n    {\r\n        return _getAggregatorV2V3Interface(_token).version();\r\n    }\r\n\r\n    function getLatestAnswer(address _token)\r\n        public\r\n        view\r\n        validPriceFeed(_token)\r\n        returns (int256)\r\n    {\r\n        return _getAggregatorV2V3Interface(_token).latestAnswer();\r\n    }\r\n\r\n    function pauseContract(bool _state) public onlyOwner returns (bool) {\r\n        contract_paused = _state;\r\n        return contract_paused;\r\n    }\r\n\r\n    function _getConvertPrice(address _token) internal view returns (int256) {\r\n        int256 price = int256(getOriginalOraclePrice(_token));\r\n        return price;\r\n    }\r\n\r\n    function _validDecimals(uint8 _decimals) internal pure returns (bool) {\r\n        if (18 - _decimals <= 18) {\r\n            return true;\r\n        } else {\r\n            return false;\r\n        }\r\n    }\r\n\r\n    ///Interfaces helper for redundant Code\r\n    function _getAggregatorV2V3Interface(address _token)\r\n        private\r\n        view\r\n        returns (AggregatorV2V3Interface)\r\n    {\r\n        address priceFeedAddress = tokenPriceFeedMapping[_token];\r\n        AggregatorV2V3Interface aggregator = AggregatorV2V3Interface(\r\n            priceFeedAddress\r\n        );\r\n        return aggregator;\r\n    }\r\n\r\n    function getPriceFeedByToken(address _token)\r\n        public\r\n        view\r\n        validPriceFeed(_token)\r\n        returns (address)\r\n    {        \r\n        return tokenPriceFeedMapping[_token];\r\n    }\r\n\r\n    function _isValidPriceFeed(address _token) internal view returns (bool) {        \r\n        if (tokenPriceFeedMapping[_token] != address(0)) {\r\n            return true;\r\n        } else {\r\n            return false;\r\n        }\r\n    }\r\n\r\n    //Modifiers\r\n    modifier validPriceFeed(address _token) {\r\n        require(_token != address(0), \"No Address 0\");\r\n        require(_isValidPriceFeed(_token) == true, \"Not valid token\");\r\n        _;\r\n    }\r\n\r\n    modifier contractPaused() {\r\n        require(contract_paused == false, \"Contract Paused\");\r\n        _;\r\n    }\r\n}\r\n",
  "sourcePath": "E:\\eth\\moralis-front-fabric\\moralis-biconomy-metatransactions\\Truffle\\contracts\\ChainlinkOracle.sol",
  "compiler": {
    "name": "solc",
    "version": "0.8.0+commit.c7dfd78e.Emscripten.clang"
  },
  "schemaVersion": "3.4.4",
  "updatedAt": "2022-01-09T22:37:24.699Z",
  "devdoc": {
    "kind": "dev",
    "methods": {
      "getOraclePrice(address)": {
        "details": "the token address have must be added before",
        "params": {
          "_token": "a parameter just like in doxygen (must be followed by parameter name)"
        }
      },
      "owner()": {
        "details": "Returns the address of the current owner."
      },
      "renounceOwnership()": {
        "details": "Leaves the contract without owner. It will not be possible to call `onlyOwner` functions anymore. Can only be called by the current owner. NOTE: Renouncing ownership will leave the contract without an owner, thereby removing any functionality that is only available to the owner."
      },
      "transferOwnership(address)": {
        "details": "Transfers ownership of the contract to a new account (`newOwner`). Can only be called by the current owner."
      }
    },
    "version": 1
  },
  "userdoc": {
    "kind": "user",
    "methods": {
      "getOraclePrice(address)": {
        "notice": "Returns Oracle Price for Token saved in <tokenPriceFeedMapping>"
      }
    },
    "version": 1
  }
}