{
  "contractName": "ContractsListAdvanced",
  "abi": [
    {
      "inputs": [],
      "name": "AVAX_ID",
      "outputs": [
        {
          "internalType": "uint8",
          "name": "",
          "type": "uint8"
        }
      ],
      "stateMutability": "view",
      "type": "function"
    },
    {
      "inputs": [],
      "name": "AVAX_USD",
      "outputs": [
        {
          "internalType": "address",
          "name": "",
          "type": "address"
        }
      ],
      "stateMutability": "view",
      "type": "function"
    },
    {
      "inputs": [],
      "name": "AVAX_USD_NAME",
      "outputs": [
        {
          "internalType": "string",
          "name": "",
          "type": "string"
        }
      ],
      "stateMutability": "view",
      "type": "function"
    },
    {
      "inputs": [],
      "name": "BTC_ETH",
      "outputs": [
        {
          "internalType": "address",
          "name": "",
          "type": "address"
        }
      ],
      "stateMutability": "view",
      "type": "function"
    },
    {
      "inputs": [],
      "name": "BTC_ETH_NAME",
      "outputs": [
        {
          "internalType": "string",
          "name": "",
          "type": "string"
        }
      ],
      "stateMutability": "view",
      "type": "function"
    },
    {
      "inputs": [],
      "name": "BTC_ID",
      "outputs": [
        {
          "internalType": "uint8",
          "name": "",
          "type": "uint8"
        }
      ],
      "stateMutability": "view",
      "type": "function"
    },
    {
      "inputs": [],
      "name": "BTC_USD",
      "outputs": [
        {
          "internalType": "address",
          "name": "",
          "type": "address"
        }
      ],
      "stateMutability": "view",
      "type": "function"
    },
    {
      "inputs": [],
      "name": "BTC_USD_NAME",
      "outputs": [
        {
          "internalType": "string",
          "name": "",
          "type": "string"
        }
      ],
      "stateMutability": "view",
      "type": "function"
    },
    {
      "inputs": [],
      "name": "CL_AVAX_USD",
      "outputs": [
        {
          "internalType": "address",
          "name": "",
          "type": "address"
        }
      ],
      "stateMutability": "view",
      "type": "function"
    },
    {
      "inputs": [],
      "name": "CL_BTC_ETH",
      "outputs": [
        {
          "internalType": "address",
          "name": "",
          "type": "address"
        }
      ],
      "stateMutability": "view",
      "type": "function"
    },
    {
      "inputs": [],
      "name": "CL_BTC_USD",
      "outputs": [
        {
          "internalType": "address",
          "name": "",
          "type": "address"
        }
      ],
      "stateMutability": "view",
      "type": "function"
    },
    {
      "inputs": [],
      "name": "CL_ETH_USD",
      "outputs": [
        {
          "internalType": "address",
          "name": "",
          "type": "address"
        }
      ],
      "stateMutability": "view",
      "type": "function"
    },
    {
      "inputs": [],
      "name": "CL_LINK_ETH",
      "outputs": [
        {
          "internalType": "address",
          "name": "",
          "type": "address"
        }
      ],
      "stateMutability": "view",
      "type": "function"
    },
    {
      "inputs": [],
      "name": "CL_LINK_USD",
      "outputs": [
        {
          "internalType": "address",
          "name": "",
          "type": "address"
        }
      ],
      "stateMutability": "view",
      "type": "function"
    },
    {
      "inputs": [],
      "name": "CL_USDT_USD",
      "outputs": [
        {
          "internalType": "address",
          "name": "",
          "type": "address"
        }
      ],
      "stateMutability": "view",
      "type": "function"
    },
    {
      "inputs": [],
      "name": "ETH_ID",
      "outputs": [
        {
          "internalType": "uint8",
          "name": "",
          "type": "uint8"
        }
      ],
      "stateMutability": "view",
      "type": "function"
    },
    {
      "inputs": [],
      "name": "ETH_USD",
      "outputs": [
        {
          "internalType": "address",
          "name": "",
          "type": "address"
        }
      ],
      "stateMutability": "view",
      "type": "function"
    },
    {
      "inputs": [],
      "name": "ETH_USD_NAME",
      "outputs": [
        {
          "internalType": "string",
          "name": "",
          "type": "string"
        }
      ],
      "stateMutability": "view",
      "type": "function"
    },
    {
      "inputs": [],
      "name": "LINK_ETH",
      "outputs": [
        {
          "internalType": "address",
          "name": "",
          "type": "address"
        }
      ],
      "stateMutability": "view",
      "type": "function"
    },
    {
      "inputs": [],
      "name": "LINK_ETH_NAME",
      "outputs": [
        {
          "internalType": "string",
          "name": "",
          "type": "string"
        }
      ],
      "stateMutability": "view",
      "type": "function"
    },
    {
      "inputs": [],
      "name": "LINK_ID",
      "outputs": [
        {
          "internalType": "uint8",
          "name": "",
          "type": "uint8"
        }
      ],
      "stateMutability": "view",
      "type": "function"
    },
    {
      "inputs": [],
      "name": "LINK_USD",
      "outputs": [
        {
          "internalType": "address",
          "name": "",
          "type": "address"
        }
      ],
      "stateMutability": "view",
      "type": "function"
    },
    {
      "inputs": [],
      "name": "LINK_USD_NAME",
      "outputs": [
        {
          "internalType": "string",
          "name": "",
          "type": "string"
        }
      ],
      "stateMutability": "view",
      "type": "function"
    },
    {
      "inputs": [],
      "name": "USDT_ID",
      "outputs": [
        {
          "internalType": "uint8",
          "name": "",
          "type": "uint8"
        }
      ],
      "stateMutability": "view",
      "type": "function"
    },
    {
      "inputs": [],
      "name": "USDT_USD",
      "outputs": [
        {
          "internalType": "address",
          "name": "",
          "type": "address"
        }
      ],
      "stateMutability": "view",
      "type": "function"
    },
    {
      "inputs": [],
      "name": "USDT_USD_NAME",
      "outputs": [
        {
          "internalType": "string",
          "name": "",
          "type": "string"
        }
      ],
      "stateMutability": "view",
      "type": "function"
    },
    {
      "inputs": [],
      "name": "USD_ID",
      "outputs": [
        {
          "internalType": "uint8",
          "name": "",
          "type": "uint8"
        }
      ],
      "stateMutability": "view",
      "type": "function"
    }
  ],
  "bytecode": "0x61058961003a600b82828239805160001a60731461002d57634e487b7160e01b600052600060045260246000fd5b30600052607381538281f3fe73000000000000000000000000000000000000000030146080604052600436106101b35760003560e01c80635c55935b11610103578063ce82c3ae116100a1578063e625a8ea1161007b578063e625a8ea14610298578063f1cd1661146102a0578063f85a16c8146102a8578063f97bde78146102b0576101b3565b8063ce82c3ae14610280578063e17c60cc14610288578063e27f5b1214610290576101b3565b8063ac88f44b116100dd578063ac88f44b14610260578063ad362d9214610268578063b5cd9d6a14610270578063c80f0d2114610278576101b3565b80635c55935b146102485780636260f55b1461025057806386aea83314610258576101b3565b80633d0c12781161017057806349517ea31161014a57806349517ea3146102285780635166f0981461023057806356abd12c146102385780635960074f14610240576101b3565b80633d0c1278146101f35780634587bfc41461021857806347e4787d14610220576101b3565b806303ab7892146101b857806310d52ea4146101d65780632dc5226c146101eb57806336199886146101f35780633934bded146102085780633aaa522d14610210575b600080fd5b6101c06102b8565b6040516101cd91906104de565b60405180910390f35b6101de6102d0565b6040516101cd91906104f2565b6101c06102f5565b6101fb61030d565b6040516101cd9190610545565b6101de610312565b6101c0610338565b6101fb61033e565b6101c0610343565b6101c061035b565b6101fb610373565b6101de610378565b6101c061039d565b6101de6103b5565b6101c06103da565b6101c06103f2565b6101c061040a565b6101de610422565b6101de610448565b6101de61046e565b6101c0610494565b6101c06104ac565b6101c06104b1565b6101fb6104c9565b6101fb6104ce565b6101c06104d3565b6101c06104d9565b730b0a7c1f6bd2024d930c9ba5be1ed44d93e5724f81565b60405180604001604052806009815260200168084a886405e408aa8960bb1b81525081565b7386d67c3d38d2bcee722e601025c25a575021c6ea81565b600481565b6040518060400160405280600a81526020016913125392c80bc81554d160b21b81525081565b61019381565b600181565b735498bb86bc934c8d34fda08e81d444153d0d06ad81565b73378e78509a907b1ec5c24d9f0243bd39f7a7b00781565b600581565b60405180604001604052806009815260200168115512080bc81554d160ba1b81525081565b737898accc83587c3c55116c5230c17a6cd9c71bad81565b60405180604001604052806009815260200168109510c80bc81554d160ba1b81525081565b73b767287a7143759f294cfb7b1adbca1140f3de7181565b7334c4c526902d88a3aa98db8a9b802603eb1e347081565b73f4060f80f295b34e0c2471461ba43745aeb186d681565b6040518060400160405280600a81526020016910559056080bc81554d160b21b81525081565b6040518060400160405280600a8152602001691554d115080bc81554d160b21b81525081565b6040518060400160405280600a815260200169098929c96405e408aa8960b31b81525081565b7331cf013a08c6ac228c94551d535d5bafe19c602a81565b606481565b731c908ab14d7b1c579a8af8bd2b9530c17c87f99981565b600381565b600281565b61019581565b60c981565b6001600160a01b0391909116815260200190565b6000602080835283518082850152825b8181101561051e57858101830151858201604001528201610502565b8181111561052f5783604083870101525b50601f01601f1916929092016040019392505050565b60ff9190911681526020019056fea2646970667358221220dcd637de0f0f6fa9ccd712b14db9545d4e71ecf0cda1032dc3d468f0dfa2220864736f6c63430008000033",
  "immutableReferences": {},
  "source": "// SPDX-License-Identifier: MIT\r\npragma solidity 0.8.0;\r\n\r\nlibrary ContractsListAdvanced {\r\n    string public constant AVAX_USD_NAME = \"AVAX / USD\";\r\n    string public constant BTC_ETH_NAME  = \"BTC / ETH\";\r\n    string public constant BTC_USD_NAME  = \"BTC / USD\";\r\n    string public constant ETH_USD_NAME  = \"ETH / USD\";\r\n    string public constant LINK_ETH_NAME = \"LINK / ETH\";\r\n    string public constant LINK_USD_NAME = \"LINK / USD\";\r\n    string public constant USDT_USD_NAME = \"USDT / USD\";\r\n\r\n    //internal ids for Tokens to be used as refference\r\n    uint8 public constant AVAX_ID = 1;\r\n    uint8 public constant BTC_ID  = 2;\r\n    uint8 public constant ETH_ID  = 3;\r\n    uint8 public constant LINK_ID = 4;\r\n    //Only use these ids for fiat USD not USDT\r\n    uint8 public constant USDT_ID = 4;\r\n    uint8 public constant USD_ID  = 5;\r\n    \r\n    //Testnet Avalanche \r\n    address public constant AVAX_USD = address(100); //Native Token \r\n    address public constant BTC_ETH  = address(201);\r\n    address public constant BTC_USD  = 0x0B0A7C1F6BD2024D930C9Ba5bE1ed44d93E5724F;\r\n    address public constant ETH_USD  = 0xB767287A7143759f294CfB7b1Adbca1140F3de71;\r\n    address public constant LINK_ETH = address(403);\r\n    address public constant LINK_USD = 0x1C908AB14d7B1c579a8AF8bD2B9530C17c87f999;\r\n    address public constant USDT_USD = address(405);   \r\n\r\n    //Testnet Avalanche Price Feed\r\n    address public constant CL_AVAX_USD = 0x5498BB86BC934c8D34FDA08E81D444153d0D06aD;\r\n    address public constant CL_BTC_ETH  = 0x378E78509a907B1Ec5c24d9f0243BD39f7A7b007;\r\n    address public constant CL_BTC_USD  = 0x31CF013A08c6Ac228C94551d535d5BAfE19c602a;\r\n    address public constant CL_ETH_USD  = 0x86d67c3D38D2bCeE722E601025C25a575021c6EA;\r\n    address public constant CL_LINK_ETH = 0xf4060f80f295b34e0C2471461ba43745Aeb186d6;\r\n    address public constant CL_LINK_USD = 0x34C4c526902d88a3Aa98DB8a9b802603EB1E3470;\r\n    address public constant CL_USDT_USD = 0x7898AcCC83587C3C55116c5230C17a6Cd9C71bad;   \r\n\r\n}",
  "sourcePath": "E:\\eth\\moralis-front-fabric\\moralis-biconomy-metatransactions\\truffle\\contracts\\utilities\\ContractsListAdvanced.sol",
  "compiler": {
    "name": "solc",
    "version": "0.8.0+commit.c7dfd78e.Emscripten.clang"
  },
  "schemaVersion": "3.4.4",
  "updatedAt": "2022-01-30T21:43:04.850Z",
  "devdoc": {
    "kind": "dev",
    "methods": {},
    "version": 1
  },
  "userdoc": {
    "kind": "user",
    "methods": {},
    "version": 1
  }
}