{
  "contractName": "ContractsListCL",
  "abi": [
    {
      "inputs": [],
      "name": "AVAX_ID",
      "outputs": [
        {
          "internalType": "uint8",
          "name": "",
          "type": "uint8"
        }
      ],
      "stateMutability": "view",
      "type": "function"
    },
    {
      "inputs": [],
      "name": "AVAX_USD",
      "outputs": [
        {
          "internalType": "address",
          "name": "",
          "type": "address"
        }
      ],
      "stateMutability": "view",
      "type": "function"
    },
    {
      "inputs": [],
      "name": "BTC_ETH",
      "outputs": [
        {
          "internalType": "address",
          "name": "",
          "type": "address"
        }
      ],
      "stateMutability": "view",
      "type": "function"
    },
    {
      "inputs": [],
      "name": "BTC_ID",
      "outputs": [
        {
          "internalType": "uint8",
          "name": "",
          "type": "uint8"
        }
      ],
      "stateMutability": "view",
      "type": "function"
    },
    {
      "inputs": [],
      "name": "BTC_USD",
      "outputs": [
        {
          "internalType": "address",
          "name": "",
          "type": "address"
        }
      ],
      "stateMutability": "view",
      "type": "function"
    },
    {
      "inputs": [],
      "name": "CL_AVAX_USD",
      "outputs": [
        {
          "internalType": "address",
          "name": "",
          "type": "address"
        }
      ],
      "stateMutability": "view",
      "type": "function"
    },
    {
      "inputs": [],
      "name": "CL_BTC_ETH",
      "outputs": [
        {
          "internalType": "address",
          "name": "",
          "type": "address"
        }
      ],
      "stateMutability": "view",
      "type": "function"
    },
    {
      "inputs": [],
      "name": "CL_BTC_USD",
      "outputs": [
        {
          "internalType": "address",
          "name": "",
          "type": "address"
        }
      ],
      "stateMutability": "view",
      "type": "function"
    },
    {
      "inputs": [],
      "name": "CL_ETH_USD",
      "outputs": [
        {
          "internalType": "address",
          "name": "",
          "type": "address"
        }
      ],
      "stateMutability": "view",
      "type": "function"
    },
    {
      "inputs": [],
      "name": "CL_LINK_ETH",
      "outputs": [
        {
          "internalType": "address",
          "name": "",
          "type": "address"
        }
      ],
      "stateMutability": "view",
      "type": "function"
    },
    {
      "inputs": [],
      "name": "CL_LINK_USD",
      "outputs": [
        {
          "internalType": "address",
          "name": "",
          "type": "address"
        }
      ],
      "stateMutability": "view",
      "type": "function"
    },
    {
      "inputs": [],
      "name": "CL_USDT_USD",
      "outputs": [
        {
          "internalType": "address",
          "name": "",
          "type": "address"
        }
      ],
      "stateMutability": "view",
      "type": "function"
    },
    {
      "inputs": [],
      "name": "ETH_ID",
      "outputs": [
        {
          "internalType": "uint8",
          "name": "",
          "type": "uint8"
        }
      ],
      "stateMutability": "view",
      "type": "function"
    },
    {
      "inputs": [],
      "name": "ETH_USD",
      "outputs": [
        {
          "internalType": "address",
          "name": "",
          "type": "address"
        }
      ],
      "stateMutability": "view",
      "type": "function"
    },
    {
      "inputs": [],
      "name": "LINK_ETH",
      "outputs": [
        {
          "internalType": "address",
          "name": "",
          "type": "address"
        }
      ],
      "stateMutability": "view",
      "type": "function"
    },
    {
      "inputs": [],
      "name": "LINK_ID",
      "outputs": [
        {
          "internalType": "uint8",
          "name": "",
          "type": "uint8"
        }
      ],
      "stateMutability": "view",
      "type": "function"
    },
    {
      "inputs": [],
      "name": "LINK_USD",
      "outputs": [
        {
          "internalType": "address",
          "name": "",
          "type": "address"
        }
      ],
      "stateMutability": "view",
      "type": "function"
    },
    {
      "inputs": [],
      "name": "USDT_ID",
      "outputs": [
        {
          "internalType": "uint8",
          "name": "",
          "type": "uint8"
        }
      ],
      "stateMutability": "view",
      "type": "function"
    },
    {
      "inputs": [],
      "name": "USDT_USD",
      "outputs": [
        {
          "internalType": "address",
          "name": "",
          "type": "address"
        }
      ],
      "stateMutability": "view",
      "type": "function"
    },
    {
      "inputs": [],
      "name": "USD_ID",
      "outputs": [
        {
          "internalType": "uint8",
          "name": "",
          "type": "uint8"
        }
      ],
      "stateMutability": "view",
      "type": "function"
    }
  ],
  "bytecode": "0x61036d61003a600b82828239805160001a60731461002d57634e487b7160e01b600052600060045260246000fd5b30600052607381538281f3fe73000000000000000000000000000000000000000030146080604052600436106101365760003560e01c80636260f55b116100b7578063e27f5b121161007b578063e27f5b12146101ce578063e625a8ea146101d6578063f1cd1661146101de578063f85a16c8146101e6578063f97bde78146101ee57610136565b80636260f55b146101a657806386aea833146101ae578063ac88f44b146101b6578063ce82c3ae146101be578063e17c60cc146101c657610136565b80634587bfc4116100fe5780634587bfc41461017e57806347e4787d1461018657806349517ea31461018e5780635166f098146101965780635960074f1461019e57610136565b806303ab78921461013b5780632dc5226c1461015957806336199886146101615780633aaa522d146101765780633d0c127814610161575b600080fd5b6101436101f6565b6040516101509190610315565b60405180910390f35b61014361020e565b610169610226565b6040516101509190610329565b61014361022b565b610169610231565b610143610236565b61014361024e565b610169610266565b61014361026b565b610143610283565b61014361029b565b6101436102b3565b6101436102cb565b6101436102e3565b6101436102e8565b610169610300565b610169610305565b61014361030a565b610143610310565b730b0a7c1f6bd2024d930c9ba5be1ed44d93e5724f81565b7386d67c3d38d2bcee722e601025c25a575021c6ea81565b600481565b61019381565b600181565b735498bb86bc934c8d34fda08e81d444153d0d06ad81565b73378e78509a907b1ec5c24d9f0243bd39f7a7b00781565b600581565b737898accc83587c3c55116c5230c17a6cd9c71bad81565b73b767287a7143759f294cfb7b1adbca1140f3de7181565b7334c4c526902d88a3aa98db8a9b802603eb1e347081565b73f4060f80f295b34e0c2471461ba43745aeb186d681565b7331cf013a08c6ac228c94551d535d5bafe19c602a81565b606481565b731c908ab14d7b1c579a8af8bd2b9530c17c87f99981565b600381565b600281565b61019581565b60c981565b6001600160a01b0391909116815260200190565b60ff9190911681526020019056fea2646970667358221220ca9942abdde7b949dc231baaf997c6dd2c217ae0c23d51978c3ece30310a382a64736f6c63430008000033",
  "immutableReferences": {},
  "source": "// SPDX-License-Identifier: MIT\r\npragma solidity 0.8.0;\r\n\r\nlibrary ContractsListCL {\r\n    //internal ids for Tokens to be used as refference\r\n    uint8 public constant AVAX_ID = 1;\r\n    uint8 public constant BTC_ID = 2;\r\n    uint8 public constant ETH_ID = 3;\r\n    uint8 public constant LINK_ID = 4;\r\n    //Only use these ids for fiat USD not USDT\r\n    uint8 public constant USDT_ID = 4;\r\n    uint8 public constant USD_ID = 5;\r\n    \r\n    //Testnet Avalanche \r\n    address public constant AVAX_USD  = address(100); //Native Token \r\n    address public constant BTC_ETH  = address(201);\r\n    address public constant BTC_USD  = 0x0B0A7C1F6BD2024D930C9Ba5bE1ed44d93E5724F;\r\n    address public constant ETH_USD  = 0xB767287A7143759f294CfB7b1Adbca1140F3de71;\r\n    address public constant LINK_ETH  = address(403);\r\n    address public constant LINK_USD  = 0x1C908AB14d7B1c579a8AF8bD2B9530C17c87f999;\r\n    address public constant USDT_USD  = address(405);   \r\n\r\n    //Testnet Avalanche Price Feed\r\n    address public constant CL_AVAX_USD  = 0x5498BB86BC934c8D34FDA08E81D444153d0D06aD;\r\n    address public constant CL_BTC_ETH  = 0x378E78509a907B1Ec5c24d9f0243BD39f7A7b007;\r\n    address public constant CL_BTC_USD  = 0x31CF013A08c6Ac228C94551d535d5BAfE19c602a;\r\n    address public constant CL_ETH_USD  = 0x86d67c3D38D2bCeE722E601025C25a575021c6EA;\r\n    address public constant CL_LINK_ETH  = 0xf4060f80f295b34e0C2471461ba43745Aeb186d6;\r\n    address public constant CL_LINK_USD  = 0x34C4c526902d88a3Aa98DB8a9b802603EB1E3470;\r\n    address public constant CL_USDT_USD  = 0x7898AcCC83587C3C55116c5230C17a6Cd9C71bad;   \r\n\r\n}",
  "sourcePath": "E:\\eth\\moralis-front-fabric\\moralis-biconomy-metatransactions\\truffle\\contracts\\utilities\\ContractsListCL.sol",
  "compiler": {
    "name": "solc",
    "version": "0.8.0+commit.c7dfd78e.Emscripten.clang"
  },
  "schemaVersion": "3.4.4",
  "updatedAt": "2022-01-30T21:43:04.858Z",
  "devdoc": {
    "kind": "dev",
    "methods": {},
    "version": 1
  },
  "userdoc": {
    "kind": "user",
    "methods": {},
    "version": 1
  }
}