{
  "contractName": "FabricOracle",
  "abi": [
    {
      "anonymous": false,
      "inputs": [
        {
          "indexed": true,
          "internalType": "uint256",
          "name": "id",
          "type": "uint256"
        },
        {
          "indexed": true,
          "internalType": "address",
          "name": "oracleAddress",
          "type": "address"
        },
        {
          "indexed": true,
          "internalType": "address",
          "name": "ownerAddress",
          "type": "address"
        }
      ],
      "name": "newOracleCreated",
      "type": "event"
    },
    {
      "inputs": [
        {
          "internalType": "string",
          "name": "_name",
          "type": "string"
        }
      ],
      "name": "newOneClickAdvancedOracle",
      "outputs": [],
      "stateMutability": "nonpayable",
      "type": "function"
    },
    {
      "inputs": [],
      "name": "getOracles",
      "outputs": [
        {
          "components": [
            {
              "internalType": "uint256",
              "name": "id",
              "type": "uint256"
            },
            {
              "internalType": "string",
              "name": "name",
              "type": "string"
            },
            {
              "internalType": "address",
              "name": "oracleAddress",
              "type": "address"
            },
            {
              "internalType": "address",
              "name": "owner",
              "type": "address"
            },
            {
              "internalType": "uint256",
              "name": "createdDate",
              "type": "uint256"
            },
            {
              "internalType": "address",
              "name": "trustedCaller",
              "type": "address"
            }
          ],
          "internalType": "struct FabricOracle.Oracle[]",
          "name": "",
          "type": "tuple[]"
        }
      ],
      "stateMutability": "view",
      "type": "function"
    },
    {
      "inputs": [],
      "name": "getOraclesLength",
      "outputs": [
        {
          "internalType": "uint256",
          "name": "",
          "type": "uint256"
        }
      ],
      "stateMutability": "view",
      "type": "function"
    }
  ],
  "bytecode": "0x608060405234801561001057600080fd5b50612c18806100206000396000f3fe608060405234801561001057600080fd5b50600436106100415760003560e01c80631a132f221461004657806340884c521461005b578063e308b27514610079575b600080fd5b610059610054366004610479565b61008e565b005b610063610289565b6040516100709190610555565b60405180910390f35b6100816103c0565b6040516100709190610675565b60003360405161009d906103c6565b6100a79190610527565b604051809103906000f0801580156100c3573d6000803e3d6000fd5b509050600033826040516100d6906103d3565b6100e192919061053b565b604051809103906000f0801580156100fd573d6000803e3d6000fd5b5090506001600160a01b03811661012f5760405162461bcd60e51b81526004016101269061064c565b60405180910390fd5b60008054908061013e836106b9565b90915550506040805160c08101825260008054825260208083018781526001600160a01b038087169585019590955233606085015242608085015293861660a08401526001805480820182559252825160069092027fb10e2d527612073b26eecdfd717e6a320cf44b4afac2b0732d9fcbe2b7fa0cf6810192835593518051939492936101f2937fb10e2d527612073b26eecdfd717e6a320cf44b4afac2b0732d9fcbe2b7fa0cf7019291909101906103e0565b506040828101516002830180546001600160a01b03199081166001600160a01b0393841617909155606085015160038501805483169184169190911790556080850151600485015560a0909401516005909301805490941692811692909217909255600080549251339392851692917f150f8bfa1568ad7eaee51e6446a9648c22d538fb93493b828fced908ff939f6791a4505050565b60606001805480602002602001604051908101604052809291908181526020016000905b828210156103b757838290600052602060002090600602016040518060c0016040529081600082015481526020016001820180546102ea9061067e565b80601f01602080910402602001604051908101604052809291908181526020018280546103169061067e565b80156103635780601f1061033857610100808354040283529160200191610363565b820191906000526020600020905b81548152906001019060200180831161034657829003601f168201915b505050918352505060028201546001600160a01b03908116602080840191909152600384015482166040840152600484015460608401526005909301541660809091015290825260019290920191016102ad565b50505050905090565b60015490565b6107ca806106f783390190565b611d2280610ec183390190565b8280546103ec9061067e565b90600052602060002090601f01602090048101928261040e5760008555610454565b82601f1061042757805160ff1916838001178555610454565b82800160010185558215610454579182015b82811115610454578251825591602001919060010190610439565b50610460929150610464565b5090565b5b808211156104605760008155600101610465565b6000602080838503121561048b578182fd5b823567ffffffffffffffff808211156104a2578384fd5b818501915085601f8301126104b5578384fd5b8135818111156104c7576104c76106e0565b604051601f8201601f19168101850183811182821017156104ea576104ea6106e0565b6040528181528382018501881015610500578586fd5b818585018683013790810190930193909352509392505050565b6001600160a01b03169052565b6001600160a01b0391909116815260200190565b6001600160a01b0392831681529116602082015260400190565b60208082528251828201819052600091906040908185019080840286018301878501865b8381101561063e57603f19898403018552815160c08151855288820151818a870152805180838801528b92505b808310156105c4578183018b015187840160e00152918a01916105a6565b808311156105d5578b60e082890101525b8984015192506105e78a88018461051a565b606092508284015191506105fd8388018361051a565b6080848101519088015260a09384015193925061061c8388018561051a565b978a0197601f01601f19169590950160e0019450505090860190600101610579565b509098975050505050505050565b6020808252600f908201526e496e76616c6964206164647265737360881b604082015260600190565b90815260200190565b60028104600182168061069257607f821691505b602082108114156106b357634e487b7160e01b600052602260045260246000fd5b50919050565b60006000198214156106d957634e487b7160e01b81526011600452602481fd5b5060010190565b634e487b7160e01b600052604160045260246000fdfe608060405234801561001057600080fd5b506040516107ca3803806107ca83398101604081905261002f916100a2565b600080546001600160a01b039092166001600160a01b031992831681178255808252600260205260408220805460ff191660019081179091558054808201825592527fb10e2d527612073b26eecdfd717e6a320cf44b4afac2b0732d9fcbe2b7fa0cf690910180549092161790556100d0565b6000602082840312156100b3578081fd5b81516001600160a01b03811681146100c9578182fd5b9392505050565b6106eb806100df6000396000f3fe608060405234801561001057600080fd5b50600436106100625760003560e01c80631fbd2822146100675780635fb67b19146100905780637477b6c9146100b0578063936c6f36146100c5578063c4aa1f63146100da578063fe0174bd146100ed575b600080fd5b61007a610075366004610471565b6100f5565b6040516100879190610518565b60405180910390f35b6100a361009e36600461049f565b61010a565b60405161008791906104b7565b6100b8610134565b60405161008791906104cb565b6100d86100d3366004610471565b610196565b005b6100d86100e8366004610471565b610375565b6100a3610462565b60026020526000908152604090205460ff1681565b6001818154811061011a57600080fd5b6000918252602090912001546001600160a01b0316905081565b6060600180548060200260200160405190810160405280929190818152602001828054801561018c57602002820191906000526020600020905b81546001600160a01b0316815260019091019060200180831161016e575b5050505050905090565b6000546001600160a01b031633146101c95760405162461bcd60e51b81526004016101c090610523565b60405180910390fd5b6001600160a01b03811660009081526002602052604090205460ff166101ee57600080fd5b600180541161020f5760405162461bcd60e51b81526004016101c0906105c1565b60005b816001600160a01b03166001828154811061023d57634e487b7160e01b600052603260045260246000fd5b6000918252602090912001546001600160a01b03161461028b576001548114156102795760405162461bcd60e51b81526004016101c090610629565b8061028381610684565b915050610212565b6001805461029a90829061066d565b815481106102b857634e487b7160e01b600052603260045260246000fd5b600091825260209091200154600180546001600160a01b0390921691839081106102f257634e487b7160e01b600052603260045260246000fd5b600091825260208083209190910180546001600160a01b0319166001600160a01b039485161790559184168152600290915260409020805460ff19169055600180548061034f57634e487b7160e01b600052603160045260246000fd5b600082815260209020810160001990810180546001600160a01b03191690550190555050565b6000546001600160a01b0316331461039f5760405162461bcd60e51b81526004016101c090610523565b6001600160a01b0381166103c55760405162461bcd60e51b81526004016101c090610547565b6001600160a01b03811660009081526002602052604090205460ff16156103fe5760405162461bcd60e51b81526004016101c090610591565b6001805480820182557fb10e2d527612073b26eecdfd717e6a320cf44b4afac2b0732d9fcbe2b7fa0cf60180546001600160a01b039093166001600160a01b031990931683179055600091825260026020526040909120805460ff19169091179055565b6000546001600160a01b031690565b600060208284031215610482578081fd5b81356001600160a01b0381168114610498578182fd5b9392505050565b6000602082840312156104b0578081fd5b5035919050565b6001600160a01b0391909116815260200190565b6020808252825182820181905260009190848201906040850190845b8181101561050c5783516001600160a01b0316835292840192918401916001016104e7565b50909695505050505050565b901515815260200190565b6020808252600a908201526927b7363c9037bbb732b960b11b604082015260600190565b6020808252602a908201527f547275737465642063616c6c6572206d75737420626520213d207468616e20306040820152697830206164647265737360b01b606082015260800190565b60208082526016908201527521b0b63632b91030b63932b0b23c9032bc34b9ba399760511b604082015260600190565b60208082526042908201527f43616e206e6f742072656d6f766520616c6c207472757374656443616c6c657260408201527f732073696e636520636f6e7472616374206265636f6d657320756e757361626c606082015261329760f11b608082015260a00190565b60208082526024908201527f5061737365642063616c6c6572206164647265737320646f6573206e6f7420656040820152631e1a5cdd60e21b606082015260800190565b60008282101561067f5761067f61069f565b500390565b60006000198214156106985761069861069f565b5060010190565b634e487b7160e01b600052601160045260246000fdfea2646970667358221220e6523bfd26e31926fd89a14c5d3348c8041ea1eabe4e72584b232678431fae7964736f6c6343000800003360c0604052600a608052600960f91b60a0526000805464ffffffff0019166104001763ffffffff60281b1916650c00000000001760ff60481b191690553480156200004957600080fd5b5060405162001d2238038062001d228339810160408190526200006c91620000d0565b60008054600160501b600160f01b0319166a01000000000000000000006001600160a01b0394851602179055600180546001600160a01b0319169190921617905562000107565b80516001600160a01b0381168114620000cb57600080fd5b919050565b60008060408385031215620000e3578182fd5b620000ee83620000b3565b9150620000fe60208401620000b3565b90509250929050565b60805160a05160f81c611bf56200012d6000396000505060006108330152611bf56000f3fe608060405234801561001057600080fd5b50600436106101005760003560e01c806379226b3411610097578063b635ae4c11610066578063b635ae4c14610223578063d21f507714610236578063e05217f214610249578063e272b8921461025c57610100565b806379226b34146101d15780637ee708d1146101e6578063893d20e814610206578063a6f9dae11461020e57610100565b8063632c37b9116100d3578063632c37b9146101835780636849a3ba146101965780636dc48250146101b657806375f620ac146101be57610100565b80631e30397f14610105578063250630031461012e57806340884c521461014e578063484ebf8314610163575b600080fd5b610118610113366004611417565b61026f565b60405161012591906116f0565b60405180910390f35b61014161013c3660046113fd565b6102c3565b60405161012591906118b0565b6101566103c6565b6040516101259190611690565b61017661017136600461136a565b610501565b604051610125919061167c565b6101186101913660046114c1565b610578565b6101a96101a436600461136a565b6105dc565b60405161012591906116fb565b6101766106aa565b6101a96101cc36600461136a565b6106b9565b6101d961088c565b6040516101259190611704565b6101f96101f436600461136a565b610895565b60405161012591906118c3565b61017661095c565b61022161021c36600461136a565b610972565b005b6102216102313660046114c1565b6109e4565b6101a9610244366004611384565b610c20565b610221610257366004611452565b610cf8565b61011861026a3660046113ad565b610db8565b6000805482518391610100900463ffffffff16118015906102a3575060005481516501000000000090910463ffffffff1610155b156102b25760019150506102be565b60009150506102be565b505b919050565b6102cb6111ed565b600082810b810b8152600460209081526040808320815160a081019092528054840b840b90930b815260018301805491939284019161030990611b2e565b80601f016020809104026020016040519081016040528092919081815260200182805461033590611b2e565b80156103825780601f1061035757610100808354040283529160200191610382565b820191906000526020600020905b81548152906001019060200180831161036557829003601f168201915b505050918352505060028201546001600160a01b0390811660208301526003909201549182166040820152600160a01b90910460ff16151560609091015292915050565b60606002805480602002602001604051908101604052809291908181526020016000905b828210156104f857600084815260208082206040805160a08101909152600486029091018054840b840b90930b815260018301805491939284019161042e90611b2e565b80601f016020809104026020016040519081016040528092919081815260200182805461045a90611b2e565b80156104a75780601f1061047c576101008083540402835291602001916104a7565b820191906000526020600020905b81548152906001019060200180831161048a57829003601f168201915b505050918352505060028201546001600160a01b039081166020808401919091526003909301549081166040830152600160a01b900460ff16151560609091015290825260019290920191016103ea565b50505050905090565b6000816001600160a01b0381166105335760405162461bcd60e51b815260040161052a90611766565b60405180910390fd5b61053c81610e14565b6105585760405162461bcd60e51b815260040161052a906117b6565b50506001600160a01b039081166000908152600360205260409020541690565b60408101516000906001600160a01b0316158015906105a3575060608201516001600160a01b031615155b80156105c75750600080546105ba910b60016118d1565b60000b826000015160000b145b156105d4575060016102be565b5060006102be565b6000816001600160a01b0381166106055760405162461bcd60e51b815260040161052a90611766565b61060e81610e14565b61062a5760405162461bcd60e51b815260040161052a906117b6565b61063383610e3e565b6001600160a01b03166350d25bcd6040518163ffffffff1660e01b815260040160206040518083038186803b15801561066b57600080fd5b505afa15801561067f573d6000803e3d6000fd5b505050506040513d601f19601f820116820180604052508101906106a391906113e5565b9392505050565b6001546001600160a01b031690565b6000816001600160a01b0381166106e25760405162461bcd60e51b815260040161052a90611766565b6106eb81610e14565b6107075760405162461bcd60e51b815260040161052a906117b6565b600154604051630fde941160e11b81526001600160a01b0390911690631fbd28229061073790339060040161167c565b60206040518083038186803b15801561074f57600080fd5b505afa158015610763573d6000803e3d6000fd5b505050506040513d601f19601f8201168201806040525081019061078791906113c9565b6107a35760405162461bcd60e51b815260040161052a906117df565b600054600160481b900460ff16156107cd5760405162461bcd60e51b815260040161052a9061180c565b60006107d884610e5c565b905060006107e585610895565b90506107f081610e68565b15156001148015610804575060008160ff16115b6108205760405162461bcd60e51b815260040161052a9061178c565b600061082d826012611adb565b610857907f0000000000000000000000000000000000000000000000000000000000000000611a25565b6108619084611a41565b9050600081136108835760405162461bcd60e51b815260040161052a9061185d565b95945050505050565b60008054900b90565b6000816001600160a01b0381166108be5760405162461bcd60e51b815260040161052a90611766565b6108c781610e14565b6108e35760405162461bcd60e51b815260040161052a906117b6565b6108ec83610e3e565b6001600160a01b031663313ce5676040518163ffffffff1660e01b815260040160206040518083038186803b15801561092457600080fd5b505afa158015610938573d6000803e3d6000fd5b505050506040513d601f19601f820116820180604052508101906106a39190611584565b600054600160501b90046001600160a01b031690565b600054600160501b90046001600160a01b031633146109a35760405162461bcd60e51b815260040161052a9061188c565b600080546001600160a01b03909216600160501b027fffff0000000000000000000000000000000000000000ffffffffffffffffffff909216919091179055565b80516109ef81610e86565b610a0b5760405162461bcd60e51b815260040161052a90611835565b600054600160501b90046001600160a01b03163314610a3c5760405162461bcd60e51b815260040161052a9061188c565b60608201516040808401516001600160a01b0390811660009081526003602090815283822080546001600160a01b03191693909516929092179093558451830b830b8352600481529082208451815460ff191660ff9190940b16929092178255808401518051859392610ab692600185019291019061121c565b506040820151600280830180546001600160a01b039384166001600160a01b0319918216179091556060850151600390940180546080909601511515600160a01b0260ff60a01b1995909416959091169490941792909216179091558251839190610b269060019060000b611ac4565b81548110610b4457634e487b7160e01b600052603260045260246000fd5b60009182526020808320845160049093020180549290930b60ff1660ff19909216919091178255828101518051610b81926001850192019061121c565b506040828101516002830180546001600160a01b039283166001600160a01b0319918216179091556060850151600390940180546080909601511515600160a01b0260ff60a01b19959093169590911694909417929092169190911790915551610bec908390611616565b604051908190038120907fc7b5e4b0904f03c44c0f15c2f7b10e4f89e51162b34ebb63384026eb357a755a90600090a25050565b6000826001600160a01b038116610c495760405162461bcd60e51b815260040161052a90611766565b610c5281610e14565b610c6e5760405162461bcd60e51b815260040161052a906117b6565b6000610c7985610e3e565b604051632d6ad63760e21b81529091506001600160a01b0382169063b5ab58dc90610ca89087906004016116fb565b60206040518083038186803b158015610cc057600080fd5b505afa158015610cd4573d6000803e3d6000fd5b505050506040513d601f19601f8201168201806040525081019061088391906113e5565b600054600160501b90046001600160a01b03163314610d295760405162461bcd60e51b815260040161052a9061188c565b610d328461026f565b1515600114610d535760405162461bcd60e51b815260040161052a90611740565b6040805160a08101909152600080549091908190610d7490840b60016118d1565b60000b8152602001868152602001856001600160a01b03168152602001846001600160a01b031681526020018315158152509050610db181610f94565b5050505050565b60008054600160501b90046001600160a01b03163314610dea5760405162461bcd60e51b815260040161052a9061188c565b506000805469ff0000000000000000001916600160481b9215158302179081905560ff9190041690565b6001600160a01b03818116600090815260036020526040812054909116156105d4575060016102be565b6001600160a01b039081166000908152600360205260409020541690565b6000806106a3836105dc565b60006012610e768382611adb565b60ff16116105d4575060016102be565b600081810b810b8152600460209081526040808320815160a081019092528054840b840b840b8252600181018054859484019190610ec390611b2e565b80601f0160208091040260200160405190810160405280929190818152602001828054610eef90611b2e565b8015610f3c5780601f10610f1157610100808354040283529160200191610f3c565b820191906000526020600020905b815481529060010190602001808311610f1f57829003601f168201915b505050918352505060028201546001600160a01b0390811660208301526003909201549182166040820152600160a01b90910460ff1615156060909101528051909150600090810b13156102b25760019150506102be565b610f9d81610578565b1515600114610fbe5760405162461bcd60e51b815260040161052a90611712565b60608101516040808301516001600160a01b0390811660009081526003602090815283822080546001600160a01b03191693909516929092179093558351830b830b8352600481529082208351815460ff191660ff9190940b1692909217825580830151805184939261103892600185019291019061121c565b506040820151600280830180546001600160a01b039384166001600160a01b0319918216179091556060850151600390940180546080909601511515600160a01b0260ff60a01b19959094169590911694909417929092161790915580546001810182556000918252825160049091027f405787fa12a823e0f2b7631cc41b3ba8828b3321ca811111fa75cd3aa3bb5ace810180549290930b60ff1660ff19909216919091178255602080840151805185949361111b937f405787fa12a823e0f2b7631cc41b3ba8828b3321ca811111fa75cd3aa3bb5acf90910192019061121c565b5060408201516002820180546001600160a01b039283166001600160a01b0319918216179091556060840151600390930180546080909501511515600160a01b0260ff60a01b199490931694909116939093179190911617905560008054810b908061118683611b63565b91906101000a81548160ff021916908360000b60ff1602179055505080606001516001600160a01b031681604001516001600160a01b03167fc4d112bd47eb3e16f93ebd0ceab4a1802deb35c98f239fa31d93d59e45a13ab560405160405180910390a350565b6040805160a0810182526000808252606060208301819052928201819052918101829052608081019190915290565b82805461122890611b2e565b90600052602060002090601f01602090048101928261124a5760008555611290565b82601f1061126357805160ff1916838001178555611290565b82800160010185558215611290579182015b82811115611290578251825591602001919060010190611275565b5061129c9291506112a0565b5090565b5b8082111561129c57600081556001016112a1565b80356001600160a01b03811681146102be57600080fd5b80356102be81611bae565b8035600081900b81146102be57600080fd5b600082601f8301126112f9578081fd5b813567ffffffffffffffff8082111561131457611314611b98565b604051601f8301601f19168101602001828111828210171561133857611338611b98565b60405282815284830160200186101561134f578384fd5b82602086016020830137918201602001929092529392505050565b60006020828403121561137b578081fd5b6106a3826112b5565b60008060408385031215611396578081fd5b61139f836112b5565b946020939093013593505050565b6000602082840312156113be578081fd5b81356106a381611bae565b6000602082840312156113da578081fd5b81516106a381611bae565b6000602082840312156113f6578081fd5b5051919050565b60006020828403121561140e578081fd5b6106a3826112d7565b600060208284031215611428578081fd5b813567ffffffffffffffff81111561143e578182fd5b61144a848285016112e9565b949350505050565b60008060008060808587031215611467578182fd5b843567ffffffffffffffff81111561147d578283fd5b611489878288016112e9565b945050611498602086016112b5565b92506114a6604086016112b5565b915060608501356114b681611bae565b939692955090935050565b6000602082840312156114d2578081fd5b813567ffffffffffffffff808211156114e9578283fd5b9083019060a082860312156114fc578283fd5b60405160a08101818110838211171561151757611517611b98565b604052611523836112d7565b8152602083013582811115611536578485fd5b611542878286016112e9565b602083015250611554604084016112b5565b6040820152611565606084016112b5565b6060820152611576608084016112cc565b608082015295945050505050565b600060208284031215611595578081fd5b815160ff811681146106a3578182fd5b60008151810b8352602082015160a0602085015280518060a08601526115d28160c0870160208501611afe565b6040848101516001600160a01b0390811691870191909152606080860151909116908601526080938401511515938501939093525050601f01601f19160160c00190565b60008251810b825260208301518051611636816020860160208501611afe565b601f19601f820116840191505060018060a01b03806040860151166020830152806060860151166040830152506080840151151560608201526080810191505092915050565b6001600160a01b0391909116815260200190565b6000602080830181845280855180835260408601915060408482028701019250838701855b828110156116e357603f198886030184526116d18583516115a5565b945092850192908501906001016116b5565b5092979650505050505050565b901515815260200190565b90815260200190565b60009190910b815260200190565b6020808252601490820152734d7573742062652076616c6964204f7261636c6560601b604082015260600190565b6020808252600c908201526b496e76616c6964206e616d6560a01b604082015260600190565b6020808252600c908201526b04e6f204164647265737320360a41b604082015260600190565b60208082526010908201526f696e76616c696420646563696d616c7360801b604082015260600190565b6020808252600f908201526e2737ba103b30b634b2103a37b5b2b760891b604082015260600190565b60208082526013908201527227b7363c903a393ab9ba32b21031b0b63632b960691b604082015260600190565b6020808252600f908201526e10dbdb9d1c9858dd0814185d5cd959608a1b604082015260600190565b6020808252600e908201526d139bdd081a5b9d1959dc985d195960921b604082015260600190565b602080825260159082015274119a5b985b081c1c9a58d9481b9bdd081d985b1a59605a1b604082015260600190565b6020808252600a908201526927b7363c9027bbb732b960b11b604082015260600190565b6000602082526106a360208301846115a5565b60ff91909116815260200190565b600081810b83820b82821282607f038213811516156118f2576118f2611b82565b82607f1903821281161561190857611908611b82565b50019392505050565b80825b6001808611611923575061194e565b81870482111561193557611935611b82565b8086161561194257918102915b9490941c938002611914565b94509492505050565b600082801561196d576001811461197757611980565b600191505061144a565b8291505061144a565b508161198e5750600061144a565b506001600082138082146119a75780156119be576119d0565b8286048311156119b9576119b9611b82565b6119d0565b8286058312156119d0576119d0611b82565b50808316156119dc5750805b6119ed858460011c84850284611911565b8087048211600083131615611a0457611a04611b82565b8086058212600083121615611a1b57611a1b611b82565b0295945050505050565b60006106a36001600160ff1b03600160ff1b60ff861685611957565b60006001600160ff1b0381841382841380821686840486111615611a6757611a67611b82565b600160ff1b84871282811687830589121615611a8557611a85611b82565b858712925087820587128484161615611aa057611aa0611b82565b87850587128184161615611ab657611ab6611b82565b505050929093029392505050565b600082821015611ad657611ad6611b82565b500390565b600060ff821660ff841680821015611af557611af5611b82565b90039392505050565b60005b83811015611b19578181015183820152602001611b01565b83811115611b28576000848401525b50505050565b600281046001821680611b4257607f821691505b602082108114156102bc57634e487b7160e01b600052602260045260246000fd5b600081810b607f811415611b7957611b79611b82565b60010192915050565b634e487b7160e01b600052601160045260246000fd5b634e487b7160e01b600052604160045260246000fd5b8015158114611bbc57600080fd5b5056fea2646970667358221220fdfd11e2f251db0b1ac444e91d18758f703b80d201d99c38fe1018db328e832864736f6c63430008000033a264697066735822122080dd6de45659a4734b49e7d2958322432821205bf911656a120b64e4e53d981d64736f6c63430008000033",
  "immutableReferences": {},
  "source": "//SPDX-License-Identifier: UNLICENSED\r\npragma solidity 0.8.0;\r\n\r\nimport \"./OneClickOracleBasic.sol\";\r\nimport \"./TrustedCaller.sol\";\r\n\r\ncontract FabricOracle {\r\n    uint256 counter;\r\n\r\n    struct Oracle {\r\n        uint256 id;\r\n        string name;\r\n        address oracleAddress;\r\n        address owner;\r\n        uint256 createdDate;\r\n        address trustedCaller;\r\n    }\r\n\r\n    Oracle[] oracleDetails;\r\n\r\n    event newOracleCreated(\r\n        uint256 indexed id,\r\n        address indexed oracleAddress,\r\n        address indexed ownerAddress\r\n    );\r\n    \r\n    function newOneClickAdvancedOracle(        \r\n        string memory _name        \r\n    ) public {\r\n        TrustedCaller trustedCaller = new TrustedCaller(msg.sender);\r\n        OneClickOracleBasic newOracle = new OneClickOracleBasic(\r\n            msg.sender,\r\n            address(trustedCaller)\r\n        );\r\n        require(address(newOracle) != address(0), \"Invalid address\");\r\n        counter++;\r\n        oracleDetails.push(\r\n            Oracle(\r\n                counter,\r\n                _name,\r\n                address(newOracle),\r\n                msg.sender,\r\n                block.timestamp,\r\n                address(trustedCaller)\r\n            )\r\n        );\r\n        emit newOracleCreated(counter, address(newOracle), msg.sender);\r\n    }\r\n\r\n    function getOracles() public view returns (Oracle[] memory) {\r\n        return oracleDetails;\r\n    }\r\n\r\n    function getOraclesLength() public view returns (uint256) {\r\n        return oracleDetails.length;\r\n    }\r\n\r\n}\r\n",
  "sourcePath": "E:\\eth\\moralis-front-fabric\\moralis-biconomy-metatransactions\\truffle\\contracts\\FabricOracle.sol",
  "compiler": {
    "name": "solc",
    "version": "0.8.0+commit.c7dfd78e.Emscripten.clang"
  },
  "schemaVersion": "3.4.4",
  "updatedAt": "2022-01-30T21:43:04.483Z",
  "devdoc": {
    "kind": "dev",
    "methods": {},
    "version": 1
  },
  "userdoc": {
    "kind": "user",
    "methods": {},
    "version": 1
  }
}