{
  "contractName": "MyProject",
  "abi": [
    {
      "inputs": [
        {
          "internalType": "address",
          "name": "_myOracle",
          "type": "address"
        }
      ],
      "stateMutability": "nonpayable",
      "type": "constructor"
    },
    {
      "inputs": [
        {
          "internalType": "address",
          "name": "_token1",
          "type": "address"
        },
        {
          "internalType": "address",
          "name": "_token2",
          "type": "address"
        }
      ],
      "name": "myDexFunction",
      "outputs": [],
      "stateMutability": "nonpayable",
      "type": "function"
    },
    {
      "inputs": [
        {
          "internalType": "address",
          "name": "_token",
          "type": "address"
        }
      ],
      "name": "getOraclePrice",
      "outputs": [
        {
          "internalType": "int256",
          "name": "",
          "type": "int256"
        }
      ],
      "stateMutability": "view",
      "type": "function"
    },
    {
      "inputs": [
        {
          "internalType": "address",
          "name": "_newOracle",
          "type": "address"
        }
      ],
      "name": "updateMyOracle",
      "outputs": [],
      "stateMutability": "nonpayable",
      "type": "function"
    },
    {
      "inputs": [],
      "name": "getResult",
      "outputs": [
        {
          "internalType": "int256",
          "name": "",
          "type": "int256"
        }
      ],
      "stateMutability": "view",
      "type": "function"
    }
  ],
  "bytecode": "0x608060405234801561001057600080fd5b5060405161047d38038061047d83398101604081905261002f91610062565b6001600055600280546001600160a01b039092166001600160a01b03199283161790556003805490911633179055610090565b600060208284031215610073578081fd5b81516001600160a01b0381168114610089578182fd5b9392505050565b6103de8061009f6000396000f3fe608060405234801561001057600080fd5b506004361061004c5760003560e01c8063221a04661461005157806375f620ac14610066578063805e15371461008f578063de292789146100a2575b600080fd5b61006461005f366004610265565b6100aa565b005b610079610074366004610244565b610103565b60405161008691906102c3565b60405180910390f35b61006461009d366004610244565b6101db565b610079610227565b600260005414156100d65760405162461bcd60e51b81526004016100cd9061031a565b60405180910390fd5b60026000556100e481610103565b6100ed83610103565b6100f79190610351565b60019081556000555050565b6003546000906001600160a01b031633146101305760405162461bcd60e51b81526004016100cd906102cc565b600254604051631d7d882b60e21b81526000916001600160a01b0316906375f620ac906101619086906004016102af565b60206040518083038186803b15801561017957600080fd5b505afa15801561018d573d6000803e3d6000fd5b505050506040513d601f19601f820116820180604052508101906101b19190610297565b9050600081136101d35760405162461bcd60e51b81526004016100cd906102f0565b90505b919050565b6003546001600160a01b031633146102055760405162461bcd60e51b81526004016100cd906102cc565b600280546001600160a01b0319166001600160a01b0392909216919091179055565b60015490565b80356001600160a01b03811681146101d657600080fd5b600060208284031215610255578081fd5b61025e8261022d565b9392505050565b60008060408385031215610277578081fd5b6102808361022d565b915061028e6020840161022d565b90509250929050565b6000602082840312156102a8578081fd5b5051919050565b6001600160a01b0391909116815260200190565b90815260200190565b6020808252600a908201526927b7363c9037bbb732b960b11b604082015260600190565b60208082526010908201526f04f7261636c652072657475726e7320360841b604082015260600190565b6020808252601f908201527f5265656e7472616e637947756172643a207265656e7472616e742063616c6c00604082015260600190565b600080821280156001600160ff1b038490038513161561037357610373610392565b600160ff1b839003841281161561038c5761038c610392565b50500190565b634e487b7160e01b600052601160045260246000fdfea26469706673582212204b92d12bd5f85dfd7be753f910a04d92c7a9551eabdf15f4ab0fbb0b7ef0a46f64736f6c63430008000033",
  "immutableReferences": {},
  "source": "//SPDX-License-Identifier: UNLICENSED\r\npragma solidity 0.8.0;\r\n\r\nimport \"./interfaces/IOneClickOracleBasic.sol\";\r\nimport \"@openzeppelin/contracts/security/ReentrancyGuard.sol\";\r\n\r\ncontract MyProject is ReentrancyGuard {\r\n\r\n    int256 private result;\r\n    IOneClickOracleBasic myOracle;\r\n    address owner;\r\n\r\n    constructor(address _myOracle){\r\n        myOracle = IOneClickOracleBasic(_myOracle);\r\n        owner = msg.sender;\r\n    }\r\n\r\n    function myDexFunction(address _token1, address _token2) public nonReentrant {\r\n        result = getOraclePrice(_token1) + getOraclePrice(_token2);\r\n    }\r\n\r\n    function getOraclePrice(address _token) public  onlyOwner view returns(int256){\r\n        int256 result = myOracle.getOraclePrice(_token);\r\n        require(result > 0 ,\"Oracle returns 0\");\r\n        return result;\r\n    }\r\n\r\n    function updateMyOracle(address _newOracle) onlyOwner public{\r\n        myOracle = IOneClickOracleBasic(_newOracle);\r\n    }\r\n\r\n    function getResult() public view returns(int256){\r\n        return result;\r\n    }\r\n\r\n    modifier onlyOwner(){\r\n        require(msg.sender == owner, \"Only owner\");\r\n        _;\r\n    }\r\n    \r\n}\r\n\r\n\r\n\r\n\r\n",
  "sourcePath": "E:\\eth\\moralis-front-fabric\\moralis-biconomy-metatransactions\\truffle\\contracts\\MyProject.sol",
  "compiler": {
    "name": "solc",
    "version": "0.8.0+commit.c7dfd78e.Emscripten.clang"
  },
  "schemaVersion": "3.4.4",
  "updatedAt": "2022-01-30T21:43:04.509Z",
  "devdoc": {
    "kind": "dev",
    "methods": {},
    "version": 1
  },
  "userdoc": {
    "kind": "user",
    "methods": {},
    "version": 1
  }
}