{
  "contractName": "OneClickOracleAdvanced",
  "abi": [
    {
      "inputs": [
        {
          "internalType": "address",
          "name": "_owner",
          "type": "address"
        },
        {
          "internalType": "address",
          "name": "_trustedCallerContract",
          "type": "address"
        }
      ],
      "stateMutability": "nonpayable",
      "type": "constructor"
    },
    {
      "anonymous": false,
      "inputs": [
        {
          "indexed": true,
          "internalType": "address",
          "name": "_token",
          "type": "address"
        },
        {
          "indexed": true,
          "internalType": "address",
          "name": "_priceFeed",
          "type": "address"
        }
      ],
      "name": "priceFeedAdded",
      "type": "event"
    },
    {
      "anonymous": false,
      "inputs": [
        {
          "components": [
            {
              "internalType": "int8",
              "name": "id",
              "type": "int8"
            },
            {
              "internalType": "string",
              "name": "name",
              "type": "string"
            },
            {
              "internalType": "address",
              "name": "token",
              "type": "address"
            },
            {
              "internalType": "address",
              "name": "priceFeed",
              "type": "address"
            },
            {
              "internalType": "bool",
              "name": "state",
              "type": "bool"
            }
          ],
          "indexed": true,
          "internalType": "struct OneClickOracleAdvanced.Oracle",
          "name": "_Oracle",
          "type": "tuple"
        }
      ],
      "name": "priceFeedUpdated",
      "type": "event"
    },
    {
      "inputs": [
        {
          "internalType": "string",
          "name": "_name",
          "type": "string"
        },
        {
          "internalType": "address",
          "name": "_token",
          "type": "address"
        },
        {
          "internalType": "address",
          "name": "_priceFeed",
          "type": "address"
        },
        {
          "internalType": "bool",
          "name": "_state",
          "type": "bool"
        }
      ],
      "name": "addOracle",
      "outputs": [],
      "stateMutability": "nonpayable",
      "type": "function"
    },
    {
      "inputs": [],
      "name": "getOracles",
      "outputs": [
        {
          "components": [
            {
              "internalType": "int8",
              "name": "id",
              "type": "int8"
            },
            {
              "internalType": "string",
              "name": "name",
              "type": "string"
            },
            {
              "internalType": "address",
              "name": "token",
              "type": "address"
            },
            {
              "internalType": "address",
              "name": "priceFeed",
              "type": "address"
            },
            {
              "internalType": "bool",
              "name": "state",
              "type": "bool"
            }
          ],
          "internalType": "struct OneClickOracleAdvanced.Oracle[]",
          "name": "",
          "type": "tuple[]"
        }
      ],
      "stateMutability": "view",
      "type": "function"
    },
    {
      "inputs": [
        {
          "components": [
            {
              "internalType": "int8",
              "name": "id",
              "type": "int8"
            },
            {
              "internalType": "string",
              "name": "name",
              "type": "string"
            },
            {
              "internalType": "address",
              "name": "token",
              "type": "address"
            },
            {
              "internalType": "address",
              "name": "priceFeed",
              "type": "address"
            },
            {
              "internalType": "bool",
              "name": "state",
              "type": "bool"
            }
          ],
          "internalType": "struct OneClickOracleAdvanced.Oracle",
          "name": "_oracle",
          "type": "tuple"
        }
      ],
      "name": "updateOracle",
      "outputs": [],
      "stateMutability": "nonpayable",
      "type": "function"
    },
    {
      "inputs": [
        {
          "internalType": "int8",
          "name": "_id",
          "type": "int8"
        }
      ],
      "name": "getOracleById",
      "outputs": [
        {
          "components": [
            {
              "internalType": "int8",
              "name": "id",
              "type": "int8"
            },
            {
              "internalType": "string",
              "name": "name",
              "type": "string"
            },
            {
              "internalType": "address",
              "name": "token",
              "type": "address"
            },
            {
              "internalType": "address",
              "name": "priceFeed",
              "type": "address"
            },
            {
              "internalType": "bool",
              "name": "state",
              "type": "bool"
            }
          ],
          "internalType": "struct OneClickOracleAdvanced.Oracle",
          "name": "",
          "type": "tuple"
        }
      ],
      "stateMutability": "view",
      "type": "function"
    },
    {
      "inputs": [
        {
          "components": [
            {
              "internalType": "int8",
              "name": "id",
              "type": "int8"
            },
            {
              "internalType": "string",
              "name": "name",
              "type": "string"
            },
            {
              "internalType": "address",
              "name": "token",
              "type": "address"
            },
            {
              "internalType": "address",
              "name": "priceFeed",
              "type": "address"
            },
            {
              "internalType": "bool",
              "name": "state",
              "type": "bool"
            }
          ],
          "internalType": "struct OneClickOracleAdvanced.Oracle",
          "name": "_oracle",
          "type": "tuple"
        }
      ],
      "name": "isValidOracle",
      "outputs": [
        {
          "internalType": "bool",
          "name": "",
          "type": "bool"
        }
      ],
      "stateMutability": "view",
      "type": "function"
    },
    {
      "inputs": [
        {
          "internalType": "string",
          "name": "_text",
          "type": "string"
        }
      ],
      "name": "isValidName",
      "outputs": [
        {
          "internalType": "bool",
          "name": "",
          "type": "bool"
        }
      ],
      "stateMutability": "view",
      "type": "function"
    },
    {
      "inputs": [
        {
          "internalType": "address",
          "name": "_token",
          "type": "address"
        }
      ],
      "name": "getAllInformationPriceFeed",
      "outputs": [
        {
          "internalType": "uint80",
          "name": "roundID",
          "type": "uint80"
        },
        {
          "internalType": "int256",
          "name": "price",
          "type": "int256"
        },
        {
          "internalType": "uint256",
          "name": "startedAt",
          "type": "uint256"
        },
        {
          "internalType": "uint256",
          "name": "timeStamp",
          "type": "uint256"
        },
        {
          "internalType": "uint80",
          "name": "answeredInRound",
          "type": "uint80"
        }
      ],
      "stateMutability": "view",
      "type": "function"
    },
    {
      "inputs": [
        {
          "internalType": "address",
          "name": "_token",
          "type": "address"
        },
        {
          "internalType": "uint80",
          "name": "_roundId",
          "type": "uint80"
        }
      ],
      "name": "getHistoricalPrice",
      "outputs": [
        {
          "internalType": "int256",
          "name": "price",
          "type": "int256"
        }
      ],
      "stateMutability": "view",
      "type": "function"
    },
    {
      "inputs": [
        {
          "internalType": "address",
          "name": "_token",
          "type": "address"
        }
      ],
      "name": "getOriginalOraclePrice",
      "outputs": [
        {
          "internalType": "int256",
          "name": "price",
          "type": "int256"
        }
      ],
      "stateMutability": "view",
      "type": "function"
    },
    {
      "inputs": [
        {
          "internalType": "address",
          "name": "_token",
          "type": "address"
        }
      ],
      "name": "getOraclePrice",
      "outputs": [
        {
          "internalType": "int256",
          "name": "",
          "type": "int256"
        }
      ],
      "stateMutability": "view",
      "type": "function"
    },
    {
      "inputs": [
        {
          "internalType": "address",
          "name": "_token",
          "type": "address"
        }
      ],
      "name": "getDescriptionOfPriceFeed",
      "outputs": [
        {
          "internalType": "string",
          "name": "",
          "type": "string"
        }
      ],
      "stateMutability": "view",
      "type": "function"
    },
    {
      "inputs": [
        {
          "internalType": "address",
          "name": "_token",
          "type": "address"
        }
      ],
      "name": "getDecimalsOfPriceFeed",
      "outputs": [
        {
          "internalType": "uint8",
          "name": "",
          "type": "uint8"
        }
      ],
      "stateMutability": "view",
      "type": "function"
    },
    {
      "inputs": [
        {
          "internalType": "address",
          "name": "_token",
          "type": "address"
        }
      ],
      "name": "getVersionOfPriceFeed",
      "outputs": [
        {
          "internalType": "uint256",
          "name": "",
          "type": "uint256"
        }
      ],
      "stateMutability": "view",
      "type": "function"
    },
    {
      "inputs": [
        {
          "internalType": "address",
          "name": "_token",
          "type": "address"
        }
      ],
      "name": "getLatestAnswer",
      "outputs": [
        {
          "internalType": "int256",
          "name": "",
          "type": "int256"
        }
      ],
      "stateMutability": "view",
      "type": "function"
    },
    {
      "inputs": [
        {
          "internalType": "bool",
          "name": "_state",
          "type": "bool"
        }
      ],
      "name": "pauseContract",
      "outputs": [
        {
          "internalType": "bool",
          "name": "",
          "type": "bool"
        }
      ],
      "stateMutability": "nonpayable",
      "type": "function"
    },
    {
      "inputs": [
        {
          "internalType": "address",
          "name": "_token",
          "type": "address"
        }
      ],
      "name": "getPriceFeedByToken",
      "outputs": [
        {
          "internalType": "address",
          "name": "",
          "type": "address"
        }
      ],
      "stateMutability": "view",
      "type": "function"
    },
    {
      "inputs": [],
      "name": "getOwner",
      "outputs": [
        {
          "internalType": "address",
          "name": "",
          "type": "address"
        }
      ],
      "stateMutability": "view",
      "type": "function"
    },
    {
      "inputs": [],
      "name": "getOraclelength",
      "outputs": [
        {
          "internalType": "int8",
          "name": "",
          "type": "int8"
        }
      ],
      "stateMutability": "view",
      "type": "function"
    }
  ],
  "bytecode": "0x60c0604052600a608052600960f91b60a0526000805464ffffffff0019166104001763ffffffff60281b1916650c00000000001760ff60481b191690553480156200004957600080fd5b50604051620022f0380380620022f08339810160408190526200006c91620000d0565b60008054600160501b600160f01b0319166a01000000000000000000006001600160a01b0394851602179055600180546001600160a01b0319169190921617905562000107565b80516001600160a01b0381168114620000cb57600080fd5b919050565b60008060408385031215620000e3578182fd5b620000ee83620000b3565b9150620000fe60208401620000b3565b90509250929050565b60805160a05160f81c6121c36200012d600039600050506000610e8a01526121c36000f3fe608060405234801561001057600080fd5b50600436106101165760003560e01c80636c7e874c116100a25780637ee708d1116100715780637ee708d114610271578063893d20e814610291578063b635ae4c14610299578063e05217f2146102ae578063e272b892146102c157610116565b80636c7e874c146102125780636ff9ae1f1461022557806375f620ac1461024957806379226b341461025c57610116565b806340884c52116100e957806340884c52146101a4578063484ebf83146101b9578063632c37b9146101d95780636849a3ba146101ec5780636ae4a216146101ff57610116565b80631e30397f1461011b5780632506300314610144578063388a28f5146101645780633a41e18014610184575b600080fd5b61012e610129366004611836565b6102d4565b60405161013b9190611bde565b60405180910390f35b61015761015236600461181c565b610328565b60405161013b9190611de1565b61017761017236600461177c565b61042b565b60405161013b9190611c00565b61019761019236600461177c565b61050c565b60405161013b9190611be9565b6101ac6105da565b60405161013b9190611b7e565b6101cc6101c736600461177c565b610715565b60405161013b9190611b6a565b61012e6101e7366004611942565b610783565b6101976101fa36600461177c565b6107e7565b61019761020d36600461177c565b610876565b610197610220366004611796565b610a47565b61023861023336600461177c565b610b5e565b60405161013b959493929190611e0b565b61019761025736600461177c565b610d10565b610264610ee3565b60405161013b9190611bf2565b61028461027f36600461177c565b610eec565b60405161013b9190611e3e565b6101cc610fb3565b6102ac6102a7366004611942565b610fc9565b005b6102ac6102bc3660046118d3565b61113a565b61012e6102cf3660046117cc565b6111fa565b6000805482518391610100900463ffffffff1611801590610308575060005481516501000000000090910463ffffffff1610155b15610317576001915050610323565b6000915050610323565b505b919050565b61033061162f565b600082810b810b8152600460209081526040808320815160a081019092528054840b840b90930b815260018301805491939284019161036e906120e4565b80601f016020809104026020016040519081016040528092919081815260200182805461039a906120e4565b80156103e75780601f106103bc576101008083540402835291602001916103e7565b820191906000526020600020905b8154815290600101906020018083116103ca57829003601f168201915b505050918352505060028201546001600160a01b0390811660208301526003909201549182166040820152600160a01b90910460ff16151560609091015292915050565b6060816001600160a01b03811661045d5760405162461bcd60e51b815260040161045490611c67565b60405180910390fd5b61046681611256565b6104825760405162461bcd60e51b815260040161045490611cb7565b600061048d84611280565b9050806001600160a01b0316637284e4166040518163ffffffff1660e01b815260040160006040518083038186803b1580156104c857600080fd5b505afa1580156104dc573d6000803e3d6000fd5b505050506040513d6000823e601f3d908101601f191682016040526105049190810190611869565b949350505050565b6000816001600160a01b0381166105355760405162461bcd60e51b815260040161045490611c67565b61053e81611256565b61055a5760405162461bcd60e51b815260040161045490611cb7565b61056383611280565b6001600160a01b03166354fd4d506040518163ffffffff1660e01b815260040160206040518083038186803b15801561059b57600080fd5b505afa1580156105af573d6000803e3d6000fd5b505050506040513d601f19601f820116820180604052508101906105d39190611804565b9392505050565b60606002805480602002602001604051908101604052809291908181526020016000905b8282101561070c57600084815260208082206040805160a08101909152600486029091018054840b840b90930b8152600183018054919392840191610642906120e4565b80601f016020809104026020016040519081016040528092919081815260200182805461066e906120e4565b80156106bb5780601f10610690576101008083540402835291602001916106bb565b820191906000526020600020905b81548152906001019060200180831161069e57829003601f168201915b505050918352505060028201546001600160a01b039081166020808401919091526003909301549081166040830152600160a01b900460ff16151560609091015290825260019290920191016105fe565b50505050905090565b6000816001600160a01b03811661073e5760405162461bcd60e51b815260040161045490611c67565b61074781611256565b6107635760405162461bcd60e51b815260040161045490611cb7565b50506001600160a01b039081166000908152600360205260409020541690565b60408101516000906001600160a01b0316158015906107ae575060608201516001600160a01b031615155b80156107d25750600080546107c5910b6001611e9e565b60000b826000015160000b145b156107df57506001610323565b506000610323565b6000816001600160a01b0381166108105760405162461bcd60e51b815260040161045490611c67565b61081981611256565b6108355760405162461bcd60e51b815260040161045490611cb7565b61083e83611280565b6001600160a01b03166350d25bcd6040518163ffffffff1660e01b815260040160206040518083038186803b15801561059b57600080fd5b6000816001600160a01b03811661089f5760405162461bcd60e51b815260040161045490611c67565b6108a881611256565b6108c45760405162461bcd60e51b815260040161045490611cb7565b600154604051630fde941160e11b81526001600160a01b0390911690631fbd2822906108f4903390600401611b6a565b60206040518083038186803b15801561090c57600080fd5b505afa158015610920573d6000803e3d6000fd5b505050506040513d601f19601f8201168201806040525081019061094491906117e8565b6109605760405162461bcd60e51b815260040161045490611ce0565b600054600160481b900460ff161561098a5760405162461bcd60e51b815260040161045490611d3d565b600061099584611280565b90506000806000806000856001600160a01b031663feaf968c6040518163ffffffff1660e01b815260040160a06040518083038186803b1580156109d857600080fd5b505afa1580156109ec573d6000803e3d6000fd5b505050506040513d601f19601f82011682018060405250810190610a109190611a05565b9450945094509450945060008211610a3a5760405162461bcd60e51b815260040161045490611d0d565b5091979650505050505050565b6000826001600160a01b038116610a705760405162461bcd60e51b815260040161045490611c67565b610a7981611256565b610a955760405162461bcd60e51b815260040161045490611cb7565b6000610aa085611280565b90506000806000806000856001600160a01b0316639a6fc8f58a6040518263ffffffff1660e01b8152600401610ad69190611df4565b60a06040518083038186803b158015610aee57600080fd5b505afa158015610b02573d6000803e3d6000fd5b505050506040513d601f19601f82011682018060405250810190610b269190611a05565b9450945094509450945060008211610b505760405162461bcd60e51b815260040161045490611d0d565b509198975050505050505050565b600080808080856001600160a01b038116610b8b5760405162461bcd60e51b815260040161045490611c67565b610b9481611256565b610bb05760405162461bcd60e51b815260040161045490611cb7565b600154604051630fde941160e11b81526001600160a01b0390911690631fbd282290610be0903390600401611b6a565b60206040518083038186803b158015610bf857600080fd5b505afa158015610c0c573d6000803e3d6000fd5b505050506040513d601f19601f82011682018060405250810190610c3091906117e8565b610c4c5760405162461bcd60e51b815260040161045490611ce0565b6000610c5788611280565b90506000806000806000856001600160a01b031663feaf968c6040518163ffffffff1660e01b815260040160a06040518083038186803b158015610c9a57600080fd5b505afa158015610cae573d6000803e3d6000fd5b505050506040513d601f19601f82011682018060405250810190610cd29190611a05565b9450945094509450945060008211610cfc5760405162461bcd60e51b815260040161045490611d0d565b939c929b5090995097509095509350505050565b6000816001600160a01b038116610d395760405162461bcd60e51b815260040161045490611c67565b610d4281611256565b610d5e5760405162461bcd60e51b815260040161045490611cb7565b600154604051630fde941160e11b81526001600160a01b0390911690631fbd282290610d8e903390600401611b6a565b60206040518083038186803b158015610da657600080fd5b505afa158015610dba573d6000803e3d6000fd5b505050506040513d601f19601f82011682018060405250810190610dde91906117e8565b610dfa5760405162461bcd60e51b815260040161045490611ce0565b600054600160481b900460ff1615610e245760405162461bcd60e51b815260040161045490611d3d565b6000610e2f8461129e565b90506000610e3c85610eec565b9050610e47816112aa565b15156001148015610e5b575060008160ff16115b610e775760405162461bcd60e51b815260040161045490611c8d565b6000610e84826012612091565b610eae907f0000000000000000000000000000000000000000000000000000000000000000611ff2565b610eb8908461200e565b905060008113610eda5760405162461bcd60e51b815260040161045490611d8e565b95945050505050565b60008054900b90565b6000816001600160a01b038116610f155760405162461bcd60e51b815260040161045490611c67565b610f1e81611256565b610f3a5760405162461bcd60e51b815260040161045490611cb7565b610f4383611280565b6001600160a01b031663313ce5676040518163ffffffff1660e01b815260040160206040518083038186803b158015610f7b57600080fd5b505afa158015610f8f573d6000803e3d6000fd5b505050506040513d601f19601f820116820180604052508101906105d39190611a5c565b600054600160501b90046001600160a01b031690565b8051610fd4816112c8565b610ff05760405162461bcd60e51b815260040161045490611d66565b600054600160501b90046001600160a01b031633146110215760405162461bcd60e51b815260040161045490611dbd565b60608201516040808401516001600160a01b0390811660009081526003602090815283822080546001600160a01b03191693909516929092179093558451830b830b8352600481529082208451815460ff191660ff9190940b1692909217825580840151805185939261109b92600185019291019061165e565b506040828101516002830180546001600160a01b039283166001600160a01b0319918216179091556060850151600390940180546080909601511515600160a01b0260ff60a01b19959093169590911694909417929092169190911790915551611106908390611b04565b604051908190038120907fc7b5e4b0904f03c44c0f15c2f7b10e4f89e51162b34ebb63384026eb357a755a90600090a25050565b600054600160501b90046001600160a01b0316331461116b5760405162461bcd60e51b815260040161045490611dbd565b611174846102d4565b15156001146111955760405162461bcd60e51b815260040161045490611c41565b6040805160a081019091526000805490919081906111b690840b6001611e9e565b60000b8152602001868152602001856001600160a01b03168152602001846001600160a01b0316815260200183151581525090506111f3816113d6565b5050505050565b60008054600160501b90046001600160a01b0316331461122c5760405162461bcd60e51b815260040161045490611dbd565b506000805469ff0000000000000000001916600160481b9215158302179081905560ff9190041690565b6001600160a01b03818116600090815260036020526040812054909116156107df57506001610323565b6001600160a01b039081166000908152600360205260409020541690565b6000806105d383610876565b600060126112b88382612091565b60ff16116107df57506001610323565b600081810b810b8152600460209081526040808320815160a081019092528054840b840b840b8252600181018054859484019190611305906120e4565b80601f0160208091040260200160405190810160405280929190818152602001828054611331906120e4565b801561137e5780601f106113535761010080835404028352916020019161137e565b820191906000526020600020905b81548152906001019060200180831161136157829003601f168201915b505050918352505060028201546001600160a01b0390811660208301526003909201549182166040820152600160a01b90910460ff1615156060909101528051909150600090810b1315610317576001915050610323565b6113df81610783565b15156001146114005760405162461bcd60e51b815260040161045490611c13565b60608101516040808301516001600160a01b0390811660009081526003602090815283822080546001600160a01b03191693909516929092179093558351830b830b8352600481529082208351815460ff191660ff9190940b1692909217825580830151805184939261147a92600185019291019061165e565b506040820151600280830180546001600160a01b039384166001600160a01b0319918216179091556060850151600390940180546080909601511515600160a01b0260ff60a01b19959094169590911694909417929092161790915580546001810182556000918252825160049091027f405787fa12a823e0f2b7631cc41b3ba8828b3321ca811111fa75cd3aa3bb5ace810180549290930b60ff1660ff19909216919091178255602080840151805185949361155d937f405787fa12a823e0f2b7631cc41b3ba8828b3321ca811111fa75cd3aa3bb5acf90910192019061165e565b5060408201516002820180546001600160a01b039283166001600160a01b0319918216179091556060840151600390930180546080909501511515600160a01b0260ff60a01b199490931694909116939093179190911617905560008054810b90806115c883612119565b91906101000a81548160ff021916908360000b60ff1602179055505080606001516001600160a01b031681604001516001600160a01b03167fc4d112bd47eb3e16f93ebd0ceab4a1802deb35c98f239fa31d93d59e45a13ab560405160405180910390a350565b6040805160a0810182526000808252606060208301819052928201819052918101829052608081019190915290565b82805461166a906120e4565b90600052602060002090601f01602090048101928261168c57600085556116d2565b82601f106116a557805160ff19168380011785556116d2565b828001600101855582156116d2579182015b828111156116d25782518255916020019190600101906116b7565b506116de9291506116e2565b5090565b5b808211156116de57600081556001016116e3565b80356001600160a01b038116811461032357600080fd5b803561032381612164565b8035600081900b811461032357600080fd5b600082601f83011261173b578081fd5b813561174e61174982611e76565b611e4c565b818152846020838601011115611762578283fd5b816020850160208301379081016020019190915292915050565b60006020828403121561178d578081fd5b6105d3826116f7565b600080604083850312156117a8578081fd5b6117b1836116f7565b915060208301356117c181612175565b809150509250929050565b6000602082840312156117dd578081fd5b81356105d381612164565b6000602082840312156117f9578081fd5b81516105d381612164565b600060208284031215611815578081fd5b5051919050565b60006020828403121561182d578081fd5b6105d382611719565b600060208284031215611847578081fd5b813567ffffffffffffffff81111561185d578182fd5b6105048482850161172b565b60006020828403121561187a578081fd5b815167ffffffffffffffff811115611890578182fd5b8201601f810184136118a0578182fd5b80516118ae61174982611e76565b8181528560208385010111156118c2578384fd5b610eda8260208301602086016120b4565b600080600080608085870312156118e8578182fd5b843567ffffffffffffffff8111156118fe578283fd5b61190a8782880161172b565b945050611919602086016116f7565b9250611927604086016116f7565b9150606085013561193781612164565b939692955090935050565b600060208284031215611953578081fd5b813567ffffffffffffffff8082111561196a578283fd5b9083019060a0828603121561197d578283fd5b60405160a0810181811083821117156119985761199861214e565b6040526119a483611719565b81526020830135828111156119b7578485fd5b6119c38782860161172b565b6020830152506119d5604084016116f7565b60408201526119e6606084016116f7565b60608201526119f76080840161170e565b608082015295945050505050565b600080600080600060a08688031215611a1c578081fd5b8551611a2781612175565b809550506020860151935060408601519250606086015191506080860151611a4e81612175565b809150509295509295909350565b600060208284031215611a6d578081fd5b815160ff811681146105d3578182fd5b60008151808452611a958160208601602086016120b4565b601f01601f19169290920160200192915050565b60008151810b8352602082015160a06020850152611aca60a0850182611a7d565b9050604083015160018060a01b03808216604087015280606086015116606087015250506080830151151560808501528091505092915050565b60008251810b825260208301518051611b248160208601602085016120b4565b601f19601f820116840191505060018060a01b03806040860151166020830152806060860151166040830152506080840151151560608201526080810191505092915050565b6001600160a01b0391909116815260200190565b6000602080830181845280855180835260408601915060408482028701019250838701855b82811015611bd157603f19888603018452611bbf858351611aa9565b94509285019290850190600101611ba3565b5092979650505050505050565b901515815260200190565b90815260200190565b60009190910b815260200190565b6000602082526105d36020830184611a7d565b6020808252601490820152734d7573742062652076616c6964204f7261636c6560601b604082015260600190565b6020808252600c908201526b496e76616c6964206e616d6560a01b604082015260600190565b6020808252600c908201526b04e6f204164647265737320360a41b604082015260600190565b60208082526010908201526f696e76616c696420646563696d616c7360801b604082015260600190565b6020808252600f908201526e2737ba103b30b634b2103a37b5b2b760891b604082015260600190565b60208082526013908201527227b7363c903a393ab9ba32b21031b0b63632b960691b604082015260600190565b602080825260169082015275149bdd5b99081a185cc81b9bdd08199a5b9a5cda195960521b604082015260600190565b6020808252600f908201526e10dbdb9d1c9858dd0814185d5cd959608a1b604082015260600190565b6020808252600e908201526d139bdd081a5b9d1959dc985d195960921b604082015260600190565b602080825260159082015274119a5b985b081c1c9a58d9481b9bdd081d985b1a59605a1b604082015260600190565b6020808252600a908201526927b7363c9027bbb732b960b11b604082015260600190565b6000602082526105d36020830184611aa9565b69ffffffffffffffffffff91909116815260200190565b69ffffffffffffffffffff9586168152602081019490945260408401929092526060830152909116608082015260a00190565b60ff91909116815260200190565b60405181810167ffffffffffffffff81118282101715611e6e57611e6e61214e565b604052919050565b600067ffffffffffffffff821115611e9057611e9061214e565b50601f01601f191660200190565b600081810b83820b82821282607f03821381151615611ebf57611ebf612138565b82607f19038212811615611ed557611ed5612138565b50019392505050565b80825b6001808611611ef05750611f1b565b818704821115611f0257611f02612138565b80861615611f0f57918102915b9490941c938002611ee1565b94509492505050565b6000828015611f3a5760018114611f4457611f4d565b6001915050610504565b82915050610504565b5081611f5b57506000610504565b50600160008213808214611f74578015611f8b57611f9d565b828604831115611f8657611f86612138565b611f9d565b828605831215611f9d57611f9d612138565b5080831615611fa95750805b611fba858460011c84850284611ede565b8087048211600083131615611fd157611fd1612138565b8086058212600083121615611fe857611fe8612138565b0295945050505050565b60006105d36001600160ff1b03600160ff1b60ff861685611f24565b60006001600160ff1b038184138284138082168684048611161561203457612034612138565b600160ff1b8487128281168783058912161561205257612052612138565b85871292508782058712848416161561206d5761206d612138565b8785058712818416161561208357612083612138565b505050929093029392505050565b600060ff821660ff8416808210156120ab576120ab612138565b90039392505050565b60005b838110156120cf5781810151838201526020016120b7565b838111156120de576000848401525b50505050565b6002810460018216806120f857607f821691505b6020821081141561032157634e487b7160e01b600052602260045260246000fd5b600081810b607f81141561212f5761212f612138565b60010192915050565b634e487b7160e01b600052601160045260246000fd5b634e487b7160e01b600052604160045260246000fd5b801515811461217257600080fd5b50565b69ffffffffffffffffffff8116811461217257600080fdfea2646970667358221220823f75118cfe746a4435a6a81e1ad8e3b1e09625292025a8bdc95a49ea4f1bc364736f6c63430008000033",
  "immutableReferences": {
    "1061": [
      {
        "length": 32,
        "start": 3722
      }
    ]
  },
  "source": "//SPDX-License-Identifier: UNLICENSED\r\npragma solidity 0.8.0;\r\n\r\nimport \"./interfaces/AggregatorV2V3Interface.sol\";\r\nimport \"./interfaces/ITrustedCaller.sol\";\r\nimport \"./utilities/ContractsListAdvanced.sol\";\r\n\r\ncontract OneClickOracleAdvanced {\r\n    int256 private immutable exp_base = 10;\r\n    int8 private immutable base_decimals = 18;\r\n    int8 private idOracles;\r\n    uint32 private min_len_name = 4;\r\n    uint32 private max_len_name = 12;\r\n    bool private contract_paused = false;\r\n    address private owner;\r\n    ITrustedCaller private trustedCaller;\r\n\r\n    struct Oracle {\r\n        int8 id;\r\n        string name;\r\n        address token;\r\n        address priceFeed;\r\n        bool state;\r\n    }\r\n\r\n    Oracle[] oracles;\r\n\r\n    //Mappings\r\n    mapping(address => address) tokenPriceFeedMapping;\r\n    mapping(int8 => Oracle) OraclesMapping;\r\n\r\n    //Events\r\n    event priceFeedAdded(address indexed _token, address indexed _priceFeed);\r\n    event priceFeedUpdated(Oracle indexed _Oracle);\r\n\r\n    constructor(        \r\n        address _owner,\r\n        address _trustedCallerContract\r\n    ) {        \r\n        owner = _owner;\r\n        trustedCaller = ITrustedCaller(_trustedCallerContract);\r\n    }\r\n\r\n    function addOracle(\r\n        string memory _name,\r\n        address _token,\r\n        address _priceFeed,\r\n        bool _state\r\n    ) public onlyOwner {\r\n        require(isValidName(_name) == true, \"Invalid name\");\r\n        Oracle memory oracle = Oracle(\r\n            idOracles + 1,\r\n            _name,\r\n            _token,\r\n            _priceFeed,\r\n            _state\r\n        );\r\n        _addTokenToPriceFeed(oracle);\r\n        \r\n    }\r\n\r\n    function getOracles() public view returns (Oracle[] memory) {\r\n        return oracles;\r\n    }\r\n\r\n    function _addTokenToPriceFeed(Oracle memory _oracle) internal {\r\n        require(isValidOracle(_oracle) == true, \"Must be valid Oracle\");\r\n        tokenPriceFeedMapping[_oracle.token] = _oracle.priceFeed;\r\n        OraclesMapping[_oracle.id] = _oracle;\r\n        oracles.push(_oracle);\r\n        idOracles++;\r\n        emit priceFeedAdded(_oracle.token, _oracle.priceFeed);\r\n    }\r\n\r\n    function updateOracle(Oracle memory _oracle)\r\n        public\r\n        isIntegrated(_oracle.id)\r\n        onlyOwner\r\n    {\r\n        tokenPriceFeedMapping[_oracle.token] = _oracle.priceFeed;\r\n        OraclesMapping[_oracle.id] = _oracle;\r\n        emit priceFeedUpdated(_oracle);\r\n    }\r\n\r\n    function getOracleById(int8 _id) public view returns (Oracle memory) {\r\n        return OraclesMapping[_id];\r\n    }\r\n\r\n    function isValidOracle(Oracle memory _oracle) public view returns (bool) {\r\n        if (\r\n            _oracle.token != address(0) &&\r\n            _oracle.priceFeed != address(0) &&\r\n            _oracle.id == (idOracles + 1)\r\n        ) {\r\n            return true;\r\n        } else {\r\n            return false;\r\n        }\r\n    }\r\n\r\n    function isValidName(string memory _text) public view returns (bool) {\r\n        bytes memory auxText = bytes(_text);\r\n        if (auxText.length >= min_len_name && auxText.length <= max_len_name) {\r\n            return true;\r\n        } else {\r\n            return false;\r\n        }\r\n    }\r\n\r\n    function getAllInformationPriceFeed(address _token)\r\n        public\r\n        view\r\n        validPriceFeed(_token)\r\n        onlyTrustedCaller\r\n        returns (\r\n            uint80 roundID,\r\n            int256 price,\r\n            uint256 startedAt,\r\n            uint256 timeStamp,\r\n            uint80 answeredInRound\r\n        )\r\n    {\r\n        AggregatorV2V3Interface priceFeed = _getAggregatorV2V3Interface(_token);\r\n        (\r\n            uint80 roundID,\r\n            int256 price,\r\n            uint256 startedAt,\r\n            uint256 timeStamp,\r\n            uint80 answeredInRound\r\n        ) = priceFeed.latestRoundData();\r\n        require(timeStamp > 0, \"Round has not finished\");\r\n        return (roundID, price, startedAt, timeStamp, answeredInRound);\r\n    }\r\n\r\n    function getHistoricalPrice(address _token, uint80 _roundId)\r\n        public\r\n        view\r\n        validPriceFeed(_token)\r\n        returns (int256 price)\r\n    {\r\n        AggregatorV2V3Interface priceFeed = _getAggregatorV2V3Interface(_token);\r\n        (\r\n            uint80 roundID,\r\n            int256 price,\r\n            uint256 startedAt,\r\n            uint256 timeStamp,\r\n            uint80 answeredInRound\r\n        ) = priceFeed.getRoundData(_roundId);\r\n        require(timeStamp > 0, \"Round has not finished\");\r\n        return price;\r\n    }\r\n\r\n    function getOriginalOraclePrice(address _token)\r\n        public\r\n        view\r\n        validPriceFeed(_token)\r\n        onlyTrustedCaller\r\n        contractPaused        \r\n        returns (int256 price)\r\n    {\r\n        AggregatorV2V3Interface priceFeed = _getAggregatorV2V3Interface(_token);\r\n        (\r\n            uint80 roundID,\r\n            int256 price,\r\n            uint256 startedAt,\r\n            uint256 timeStamp,\r\n            uint80 answeredInRound\r\n        ) = priceFeed.latestRoundData();\r\n        require(timeStamp > 0, \"Round has not finished\");\r\n        return price;\r\n    }\r\n\r\n    function getOraclePrice(address _token)\r\n        public\r\n        view\r\n        validPriceFeed(_token)\r\n        onlyTrustedCaller\r\n        contractPaused\r\n        returns (int256)\r\n    {\r\n        int256 price = _getConvertPrice(_token);\r\n        uint8 decimals = getDecimalsOfPriceFeed(_token);\r\n        require(\r\n            _validDecimals(decimals) == true && decimals > 0,\r\n            \"invalid decimals\"\r\n        );\r\n        int256 finalPrice = price * exp_base**(18 - decimals);\r\n        require(finalPrice > 0, \"Final price not valid\");\r\n        return finalPrice;\r\n    }\r\n\r\n    function getDescriptionOfPriceFeed(address _token)\r\n        public\r\n        view\r\n        validPriceFeed(_token)\r\n        returns (string memory)\r\n    {\r\n        AggregatorV2V3Interface priceFeed = _getAggregatorV2V3Interface(_token);\r\n        return priceFeed.description();\r\n    }\r\n\r\n    function getDecimalsOfPriceFeed(address _token)\r\n        public\r\n        view\r\n        validPriceFeed(_token)\r\n        returns (uint8)\r\n    {\r\n        return _getAggregatorV2V3Interface(_token).decimals();\r\n    }\r\n\r\n    function getVersionOfPriceFeed(address _token)\r\n        public\r\n        view\r\n        validPriceFeed(_token)\r\n        returns (uint256)\r\n    {\r\n        return _getAggregatorV2V3Interface(_token).version();\r\n    }\r\n\r\n    function getLatestAnswer(address _token)\r\n        public\r\n        view\r\n        validPriceFeed(_token)\r\n        returns (int256)\r\n    {\r\n        return _getAggregatorV2V3Interface(_token).latestAnswer();\r\n    }\r\n\r\n    function pauseContract(bool _state) public onlyOwner returns (bool) {\r\n        contract_paused = _state;\r\n        return contract_paused;\r\n    }\r\n\r\n    function _getConvertPrice(address _token) internal view returns (int256) {\r\n        int256 price = int256(getOriginalOraclePrice(_token));\r\n        return price;\r\n    }\r\n\r\n    function _validDecimals(uint8 _decimals) internal pure returns (bool) {\r\n        if (18 - _decimals <= 18) {\r\n            return true;\r\n        } else {\r\n            return false;\r\n        }\r\n    }\r\n\r\n    ///Interfaces helper for redundant Code\r\n    function _getAggregatorV2V3Interface(address _token)\r\n        private\r\n        view\r\n        returns (AggregatorV2V3Interface)\r\n    {\r\n        address priceFeedAddress = tokenPriceFeedMapping[_token];\r\n        AggregatorV2V3Interface aggregator = AggregatorV2V3Interface(\r\n            priceFeedAddress\r\n        );\r\n        return aggregator;\r\n    }\r\n\r\n    function getPriceFeedByToken(address _token)\r\n        public\r\n        view\r\n        validPriceFeed(_token)\r\n        returns (address)\r\n    {\r\n        return tokenPriceFeedMapping[_token];\r\n    }\r\n\r\n    function _isValidPriceFeed(address _token) internal view returns (bool) {\r\n        if (tokenPriceFeedMapping[_token] != address(0)) {\r\n            return true;\r\n        } else {\r\n            return false;\r\n        }\r\n    }\r\n\r\n    function _isIntegrated(int8 _id) internal view returns (bool) {\r\n        Oracle memory oracle = OraclesMapping[_id];\r\n        if (oracle.id > 0) return true;\r\n        else return false;\r\n    }\r\n\r\n    function getOwner() public view returns (address) {\r\n        return owner;\r\n    }\r\n\r\n    function getOraclelength() public view returns (int8) {\r\n        return idOracles;\r\n    }\r\n\r\n    //Modifiers\r\n    modifier isIntegrated(int8 _id) {\r\n        require(_isIntegrated(_id), \"Not integrated\");\r\n        _;\r\n    }\r\n\r\n    modifier validPriceFeed(address _token) {\r\n        require(_token != address(0), \"No Address 0\");\r\n        require(_isValidPriceFeed(_token), \"Not valid token\");\r\n        _;\r\n    }\r\n\r\n    modifier contractPaused() {\r\n        require(!contract_paused, \"Contract Paused\");\r\n        _;\r\n    }\r\n\r\n    modifier onlyOwner() {\r\n        require(msg.sender == owner, \"Only Owner\");\r\n        _;\r\n    }\r\n\r\n    modifier onlyTrustedCaller() {\r\n        require(\r\n            trustedCaller.isTrustedCaller(msg.sender),\r\n            \"Only trusted caller\"\r\n        );\r\n        _;\r\n    }\r\n\r\n}\r\n",
  "sourcePath": "E:\\eth\\moralis-front-fabric\\moralis-biconomy-metatransactions\\truffle\\contracts\\OneClickOracleAdvanced.sol",
  "compiler": {
    "name": "solc",
    "version": "0.8.0+commit.c7dfd78e.Emscripten.clang"
  },
  "schemaVersion": "3.4.4",
  "updatedAt": "2022-01-19T00:24:27.110Z",
  "devdoc": {
    "kind": "dev",
    "methods": {},
    "version": 1
  },
  "userdoc": {
    "kind": "user",
    "methods": {},
    "version": 1
  }
}