{
  "contractName": "OneClickOracle",
  "abi": [
    {
      "inputs": [
        {
          "internalType": "bool",
          "name": "addBasePriceFeeds",
          "type": "bool"
        },
        {
          "internalType": "address",
          "name": "_owner",
          "type": "address"
        }
      ],
      "stateMutability": "nonpayable",
      "type": "constructor"
    },
    {
      "anonymous": false,
      "inputs": [
        {
          "indexed": true,
          "internalType": "address",
          "name": "_token",
          "type": "address"
        },
        {
          "indexed": true,
          "internalType": "address",
          "name": "_priceFeed",
          "type": "address"
        }
      ],
      "name": "priceFeedAdded",
      "type": "event"
    },
    {
      "inputs": [
        {
          "internalType": "address",
          "name": "_token",
          "type": "address"
        },
        {
          "internalType": "address",
          "name": "_priceFeed",
          "type": "address"
        }
      ],
      "name": "addTokenToPriceFeed",
      "outputs": [],
      "stateMutability": "nonpayable",
      "type": "function"
    },
    {
      "inputs": [
        {
          "internalType": "address",
          "name": "_token",
          "type": "address"
        }
      ],
      "name": "getAllInformationPriceFeed",
      "outputs": [
        {
          "internalType": "uint80",
          "name": "roundID",
          "type": "uint80"
        },
        {
          "internalType": "int256",
          "name": "price",
          "type": "int256"
        },
        {
          "internalType": "uint256",
          "name": "startedAt",
          "type": "uint256"
        },
        {
          "internalType": "uint256",
          "name": "timeStamp",
          "type": "uint256"
        },
        {
          "internalType": "uint80",
          "name": "answeredInRound",
          "type": "uint80"
        }
      ],
      "stateMutability": "view",
      "type": "function"
    },
    {
      "inputs": [
        {
          "internalType": "address",
          "name": "_token",
          "type": "address"
        },
        {
          "internalType": "uint80",
          "name": "_roundId",
          "type": "uint80"
        }
      ],
      "name": "getHistoricalPrice",
      "outputs": [
        {
          "internalType": "int256",
          "name": "price",
          "type": "int256"
        }
      ],
      "stateMutability": "view",
      "type": "function"
    },
    {
      "inputs": [
        {
          "internalType": "address",
          "name": "_token",
          "type": "address"
        }
      ],
      "name": "getOriginalOraclePrice",
      "outputs": [
        {
          "internalType": "int256",
          "name": "price",
          "type": "int256"
        }
      ],
      "stateMutability": "view",
      "type": "function"
    },
    {
      "inputs": [
        {
          "internalType": "address",
          "name": "_token",
          "type": "address"
        }
      ],
      "name": "getOraclePrice",
      "outputs": [
        {
          "internalType": "int256",
          "name": "",
          "type": "int256"
        }
      ],
      "stateMutability": "view",
      "type": "function"
    },
    {
      "inputs": [
        {
          "internalType": "address",
          "name": "_token",
          "type": "address"
        }
      ],
      "name": "getDescriptionOfPriceFeed",
      "outputs": [
        {
          "internalType": "string",
          "name": "",
          "type": "string"
        }
      ],
      "stateMutability": "view",
      "type": "function"
    },
    {
      "inputs": [
        {
          "internalType": "address",
          "name": "_token",
          "type": "address"
        }
      ],
      "name": "getDecimalsOfPriceFeed",
      "outputs": [
        {
          "internalType": "uint8",
          "name": "",
          "type": "uint8"
        }
      ],
      "stateMutability": "view",
      "type": "function"
    },
    {
      "inputs": [
        {
          "internalType": "address",
          "name": "_token",
          "type": "address"
        }
      ],
      "name": "getVersionOfPriceFeed",
      "outputs": [
        {
          "internalType": "uint256",
          "name": "",
          "type": "uint256"
        }
      ],
      "stateMutability": "view",
      "type": "function"
    },
    {
      "inputs": [
        {
          "internalType": "address",
          "name": "_token",
          "type": "address"
        }
      ],
      "name": "getLatestAnswer",
      "outputs": [
        {
          "internalType": "int256",
          "name": "",
          "type": "int256"
        }
      ],
      "stateMutability": "view",
      "type": "function"
    },
    {
      "inputs": [
        {
          "internalType": "bool",
          "name": "_state",
          "type": "bool"
        }
      ],
      "name": "pauseContract",
      "outputs": [
        {
          "internalType": "bool",
          "name": "",
          "type": "bool"
        }
      ],
      "stateMutability": "nonpayable",
      "type": "function"
    },
    {
      "inputs": [
        {
          "internalType": "address",
          "name": "_token",
          "type": "address"
        }
      ],
      "name": "getPriceFeedByToken",
      "outputs": [
        {
          "internalType": "address",
          "name": "",
          "type": "address"
        }
      ],
      "stateMutability": "view",
      "type": "function"
    },
    {
      "inputs": [],
      "name": "getOwner",
      "outputs": [
        {
          "internalType": "address",
          "name": "",
          "type": "address"
        }
      ],
      "stateMutability": "view",
      "type": "function"
    }
  ],
  "bytecode": "0x60c0604052600a608052600960f91b60a0526000805460ff191690553480156200002857600080fd5b5060405162001573380380620015738339810160408190526200004b916200027f565b81156200005c576200005c62000089565b600080546001600160a01b0390921661010002610100600160a81b03199092169190911790555062000325565b620000aa6064735498bb86bc934c8d34fda08e81d444153d0d06ad620001ad565b620000cb60c973378e78509a907b1ec5c24d9f0243bd39f7a7b007620001ad565b620000ff730b0a7c1f6bd2024d930c9ba5be1ed44d93e5724f7331cf013a08c6ac228c94551d535d5bafe19c602a620001ad565b6200013373b767287a7143759f294cfb7b1adbca1140f3de717386d67c3d38d2bcee722e601025c25a575021c6ea620001ad565b6200015561019373f4060f80f295b34e0c2471461ba43745aeb186d6620001ad565b62000189731c908ab14d7b1c579a8af8bd2b9530c17c87f9997334c4c526902d88a3aa98db8a9b802603eb1e3470620001ad565b620001ab610195737898accc83587c3c55116c5230c17a6cd9c71bad620001ad565b565b60005461010090046001600160a01b03163314620001e85760405162461bcd60e51b8152600401620001df9062000301565b60405180910390fd5b6001600160a01b038216158015906200020957506001600160a01b03811615155b620002285760405162461bcd60e51b8152600401620001df90620002ca565b6001600160a01b0382811660008181526001602052604080822080546001600160a01b0319169486169485179055517fc4d112bd47eb3e16f93ebd0ceab4a1802deb35c98f239fa31d93d59e45a13ab59190a35050565b6000806040838503121562000292578182fd5b82518015158114620002a2578283fd5b60208401519092506001600160a01b0381168114620002bf578182fd5b809150509250929050565b60208082526015908201527f4d7573742062652076616c696420616464726573730000000000000000000000604082015260600190565b6020808252600a908201526927b7363c9027bbb732b960b11b604082015260600190565b60805160a05160f81c6112286200034b6000396000505060006109b701526112286000f3fe608060405234801561001057600080fd5b50600436106100b45760003560e01c80636c7e874c116100715780636c7e874c1461015d5780636ff9ae1f1461017057806375f620ac146101945780637ee708d1146101a7578063893d20e8146101c7578063e272b892146101cf576100b4565b8063041aa115146100b9578063388a28f5146100ce5780633a41e180146100f7578063484ebf83146101175780636849a3ba146101375780636ae4a2161461014a575b600080fd5b6100cc6100c7366004610be5565b6101ef565b005b6100e16100dc366004610bcb565b6102ba565b6040516100ee9190610dc8565b60405180910390f35b61010a610105366004610bcb565b610397565b6040516100ee9190610dbf565b61012a610125366004610bcb565b61046a565b6040516100ee9190610da0565b61010a610145366004610bcb565b6104dd565b61010a610158366004610bcb565b610571565b61010a61016b366004610c17565b6106a4565b61018361017e366004610bcb565b6107c0565b6040516100ee959493929190610f64565b61010a6101a2366004610bcb565b6108db565b6101ba6101b5366004610bcb565b610a10565b6040516100ee9190610f97565b61012a610adc565b6101e26101dd366004610c4d565b610af0565b6040516100ee9190610db4565b60005461010090046001600160a01b031633146102275760405162461bcd60e51b815260040161021e90610f29565b60405180910390fd5b6001600160a01b0382161580159061024757506001600160a01b03811615155b6102635760405162461bcd60e51b815260040161021e90610ed1565b6001600160a01b0382811660008181526001602052604080822080546001600160a01b0319169486169485179055517fc4d112bd47eb3e16f93ebd0ceab4a1802deb35c98f239fa31d93d59e45a13ab59190a35050565b6060816001600160a01b0381166102e35760405162461bcd60e51b815260040161021e90610dfb565b6102ec81610b3a565b151560011461030d5760405162461bcd60e51b815260040161021e90610e4b565b600061031884610b6c565b9050806001600160a01b0316637284e4166040518163ffffffff1660e01b815260040160006040518083038186803b15801561035357600080fd5b505afa158015610367573d6000803e3d6000fd5b505050506040513d6000823e601f3d908101601f1916820160405261038f9190810190610c85565b949350505050565b6000816001600160a01b0381166103c05760405162461bcd60e51b815260040161021e90610dfb565b6103c981610b3a565b15156001146103ea5760405162461bcd60e51b815260040161021e90610e4b565b6103f383610b6c565b6001600160a01b03166354fd4d506040518163ffffffff1660e01b815260040160206040518083038186803b15801561042b57600080fd5b505afa15801561043f573d6000803e3d6000fd5b505050506040513d601f19601f820116820180604052508101906104639190610c6d565b9392505050565b6000816001600160a01b0381166104935760405162461bcd60e51b815260040161021e90610dfb565b61049c81610b3a565b15156001146104bd5760405162461bcd60e51b815260040161021e90610e4b565b50506001600160a01b039081166000908152600160205260409020541690565b6000816001600160a01b0381166105065760405162461bcd60e51b815260040161021e90610dfb565b61050f81610b3a565b15156001146105305760405162461bcd60e51b815260040161021e90610e4b565b61053983610b6c565b6001600160a01b03166350d25bcd6040518163ffffffff1660e01b815260040160206040518083038186803b15801561042b57600080fd5b6000816001600160a01b03811661059a5760405162461bcd60e51b815260040161021e90610dfb565b6105a381610b3a565b15156001146105c45760405162461bcd60e51b815260040161021e90610e4b565b60005460ff16156105e75760405162461bcd60e51b815260040161021e90610f00565b60006105f284610b6c565b90506000806000806000856001600160a01b031663feaf968c6040518163ffffffff1660e01b815260040160a06040518083038186803b15801561063557600080fd5b505afa158015610649573d6000803e3d6000fd5b505050506040513d601f19601f8201168201806040525081019061066d9190610d28565b94509450945094509450600082116106975760405162461bcd60e51b815260040161021e90610e74565b5091979650505050505050565b6000826001600160a01b0381166106cd5760405162461bcd60e51b815260040161021e90610dfb565b6106d681610b3a565b15156001146106f75760405162461bcd60e51b815260040161021e90610e4b565b600061070285610b6c565b90506000806000806000856001600160a01b0316639a6fc8f58a6040518263ffffffff1660e01b81526004016107389190610f4d565b60a06040518083038186803b15801561075057600080fd5b505afa158015610764573d6000803e3d6000fd5b505050506040513d601f19601f820116820180604052508101906107889190610d28565b94509450945094509450600082116107b25760405162461bcd60e51b815260040161021e90610e74565b509198975050505050505050565b600080808080856001600160a01b0381166107ed5760405162461bcd60e51b815260040161021e90610dfb565b6107f681610b3a565b15156001146108175760405162461bcd60e51b815260040161021e90610e4b565b600061082288610b6c565b90506000806000806000856001600160a01b031663feaf968c6040518163ffffffff1660e01b815260040160a06040518083038186803b15801561086557600080fd5b505afa158015610879573d6000803e3d6000fd5b505050506040513d601f19601f8201168201806040525081019061089d9190610d28565b94509450945094509450600082116108c75760405162461bcd60e51b815260040161021e90610e74565b939c929b5090995097509095509350505050565b6000816001600160a01b0381166109045760405162461bcd60e51b815260040161021e90610dfb565b61090d81610b3a565b151560011461092e5760405162461bcd60e51b815260040161021e90610e4b565b60005460ff16156109515760405162461bcd60e51b815260040161021e90610f00565b600061095c84610b8a565b9050600061096985610a10565b905061097481610b96565b15156001148015610988575060008160ff16115b6109a45760405162461bcd60e51b815260040161021e90610e21565b60006109b1826012611158565b6109db907f00000000000000000000000000000000000000000000000000000000000000006110b9565b6109e590846110d5565b905060008113610a075760405162461bcd60e51b815260040161021e90610ea4565b95945050505050565b6000816001600160a01b038116610a395760405162461bcd60e51b815260040161021e90610dfb565b610a4281610b3a565b1515600114610a635760405162461bcd60e51b815260040161021e90610e4b565b610a6c83610b6c565b6001600160a01b031663313ce5676040518163ffffffff1660e01b815260040160206040518083038186803b158015610aa457600080fd5b505afa158015610ab8573d6000803e3d6000fd5b505050506040513d601f19601f820116820180604052508101906104639190610d7f565b60005461010090046001600160a01b031690565b6000805461010090046001600160a01b03163314610b205760405162461bcd60e51b815260040161021e90610f29565b506000805460ff1916821515179081905560ff165b919050565b6001600160a01b0381811660009081526001602052604081205490911615610b6457506001610b35565b506000610b35565b6001600160a01b039081166000908152600160205260409020541690565b60008061046383610571565b60006012610ba48382611158565b60ff1611610b6457506001610b35565b80356001600160a01b0381168114610b3557600080fd5b600060208284031215610bdc578081fd5b61046382610bb4565b60008060408385031215610bf7578081fd5b610c0083610bb4565b9150610c0e60208401610bb4565b90509250929050565b60008060408385031215610c29578182fd5b610c3283610bb4565b91506020830135610c42816111d7565b809150509250929050565b600060208284031215610c5e578081fd5b81358015158114610463578182fd5b600060208284031215610c7e578081fd5b5051919050565b600060208284031215610c96578081fd5b815167ffffffffffffffff80821115610cad578283fd5b818401915084601f830112610cc0578283fd5b815181811115610cd257610cd26111c1565b604051601f8201601f191681016020018381118282101715610cf657610cf66111c1565b604052818152838201602001871015610d0d578485fd5b610d1e82602083016020870161117b565b9695505050505050565b600080600080600060a08688031215610d3f578081fd5b8551610d4a816111d7565b809550506020860151935060408601519250606086015191506080860151610d71816111d7565b809150509295509295909350565b600060208284031215610d90578081fd5b815160ff81168114610463578182fd5b6001600160a01b0391909116815260200190565b901515815260200190565b90815260200190565b6000602082528251806020840152610de781604085016020870161117b565b601f01601f19169190910160400192915050565b6020808252600c908201526b04e6f204164647265737320360a41b604082015260600190565b60208082526010908201526f696e76616c696420646563696d616c7360801b604082015260600190565b6020808252600f908201526e2737ba103b30b634b2103a37b5b2b760891b604082015260600190565b602080825260169082015275149bdd5b99081a185cc81b9bdd08199a5b9a5cda195960521b604082015260600190565b602080825260139082015272046696e616c207072696365206d696e7573203606c1b604082015260600190565b6020808252601590820152744d7573742062652076616c6964206164647265737360581b604082015260600190565b6020808252600f908201526e10dbdb9d1c9858dd0814185d5cd959608a1b604082015260600190565b6020808252600a908201526927b7363c9027bbb732b960b11b604082015260600190565b69ffffffffffffffffffff91909116815260200190565b69ffffffffffffffffffff9586168152602081019490945260408401929092526060830152909116608082015260a00190565b60ff91909116815260200190565b80825b6001808611610fb75750610fe2565b818704821115610fc957610fc96111ab565b80861615610fd657918102915b9490941c938002610fa8565b94509492505050565b6000828015611001576001811461100b57611014565b600191505061038f565b8291505061038f565b50816110225750600061038f565b5060016000821380821461103b57801561105257611064565b82860483111561104d5761104d6111ab565b611064565b828605831215611064576110646111ab565b50808316156110705750805b611081858460011c84850284610fa5565b8087048211600083131615611098576110986111ab565b80860582126000831216156110af576110af6111ab565b0295945050505050565b60006104636001600160ff1b03600160ff1b60ff861685610feb565b60006001600160ff1b03818413828413808216868404861116156110fb576110fb6111ab565b600160ff1b84871282811687830589121615611119576111196111ab565b858712925087820587128484161615611134576111346111ab565b8785058712818416161561114a5761114a6111ab565b505050929093029392505050565b600060ff821660ff841680821015611172576111726111ab565b90039392505050565b60005b8381101561119657818101518382015260200161117e565b838111156111a5576000848401525b50505050565b634e487b7160e01b600052601160045260246000fd5b634e487b7160e01b600052604160045260246000fd5b69ffffffffffffffffffff811681146111ef57600080fd5b5056fea2646970667358221220cc2097b1ef62349a3c1373df2839c7d9a9b126caa9a5e250b93c73341ec2308c64736f6c63430008000033",
  "immutableReferences": {
    "1756": [
      {
        "length": 32,
        "start": 2487
      }
    ]
  },
  "source": "// SPDX-License-Identifier: MIT\r\npragma solidity 0.8.0;\r\n\r\nimport \"./interfaces/AggregatorV2V3Interface.sol\";\r\nimport \"./utilities/ContractsListCL.sol\";\r\n\r\ncontract OneClickOracle  {\r\n    int256  private immutable exp_base = 10;\r\n    int8    private immutable base_decimals = 18;    \r\n    bool    private contract_paused = false;\r\n    address private owner;\r\n\r\n    //Mappings\r\n    mapping(address => address) tokenPriceFeedMapping;\r\n    //Events\r\n    event priceFeedAdded(address indexed _token, address indexed _priceFeed);    \r\n\r\n    constructor(bool addBasePriceFeeds, address _owner){\r\n        if(addBasePriceFeeds)\r\n            addBasePriceFeed();\r\n        \r\n        owner = _owner;\r\n    } \r\n    \r\n    function addBasePriceFeed() internal{\r\n        addTokenToPriceFeed(ContractsListCL.AVAX_USD, ContractsListCL.CL_AVAX_USD);\r\n        addTokenToPriceFeed(ContractsListCL.BTC_ETH, ContractsListCL.CL_BTC_ETH);\r\n        addTokenToPriceFeed(ContractsListCL.BTC_USD, ContractsListCL.CL_BTC_USD);\r\n        addTokenToPriceFeed(ContractsListCL.ETH_USD, ContractsListCL.CL_ETH_USD);\r\n        addTokenToPriceFeed(ContractsListCL.LINK_ETH, ContractsListCL.CL_LINK_ETH);\r\n        addTokenToPriceFeed(ContractsListCL.LINK_USD, ContractsListCL.CL_LINK_USD);\r\n        addTokenToPriceFeed(ContractsListCL.USDT_USD, ContractsListCL.CL_USDT_USD);\r\n    }    \r\n\r\n    function addTokenToPriceFeed(address _token, address _priceFeed)\r\n        public\r\n        onlyOwner\r\n    {\r\n        require(\r\n            _token != address(0) && _priceFeed != address(0),\r\n            \"Must be valid address\"\r\n        );\r\n        tokenPriceFeedMapping[_token] = _priceFeed;\r\n        emit priceFeedAdded(_token, _priceFeed);\r\n    }\r\n\r\n\r\n    function getAllInformationPriceFeed(address _token)\r\n        public\r\n        view\r\n        validPriceFeed(_token)\r\n        returns (\r\n            uint80 roundID,\r\n            int256 price,\r\n            uint256 startedAt,\r\n            uint256 timeStamp,\r\n            uint80 answeredInRound\r\n        )\r\n    {        \r\n        AggregatorV2V3Interface priceFeed = _getAggregatorV2V3Interface(_token);\r\n        (\r\n            uint80 roundID,\r\n            int256 price,\r\n            uint256 startedAt,\r\n            uint256 timeStamp,\r\n            uint80 answeredInRound\r\n        ) = priceFeed.latestRoundData();\r\n        require(timeStamp > 0, \"Round has not finished\");\r\n        return (roundID, price, startedAt, timeStamp, answeredInRound);\r\n    }\r\n\r\n    function getHistoricalPrice(address _token, uint80 _roundId)\r\n        public\r\n        view\r\n        validPriceFeed(_token)\r\n        returns (int256 price)\r\n    {\r\n        AggregatorV2V3Interface priceFeed = _getAggregatorV2V3Interface(_token);\r\n        (\r\n            uint80 roundID,\r\n            int256 price,\r\n            uint256 startedAt,\r\n            uint256 timeStamp,\r\n            uint80 answeredInRound\r\n        ) = priceFeed.getRoundData(_roundId);\r\n        require(timeStamp > 0, \"Round has not finished\");\r\n        return price;\r\n    }\r\n\r\n    function getOriginalOraclePrice(address _token)\r\n        public\r\n        view\r\n        validPriceFeed(_token)\r\n        contractPaused\r\n        returns (int256 price)\r\n    {\r\n        AggregatorV2V3Interface priceFeed = _getAggregatorV2V3Interface(_token);\r\n        (\r\n            uint80 roundID,\r\n            int256 price,\r\n            uint256 startedAt,\r\n            uint256 timeStamp,\r\n            uint80 answeredInRound\r\n        ) = priceFeed.latestRoundData();\r\n        require(timeStamp > 0, \"Round has not finished\");\r\n        return price;\r\n    }\r\n\r\n    /// @notice Returns Oracle Price for Token saved in <tokenPriceFeedMapping>\r\n    /// @dev the token address have must be added before\r\n    /// @param _token a parameter just like in doxygen (must be followed by parameter name)\r\n    function getOraclePrice(address _token)\r\n        public\r\n        view\r\n        validPriceFeed(_token)\r\n        contractPaused\r\n        returns (int256)\r\n    {\r\n        int256 price = _getConvertPrice(_token);\r\n        uint8 decimals = getDecimalsOfPriceFeed(_token);\r\n        require(\r\n            _validDecimals(decimals) == true && decimals > 0,\r\n            \"invalid decimals\"\r\n        );\r\n        int256 finalPrice = price * exp_base**(18 - decimals);\r\n        require(finalPrice > 0, \"Final price minus 0\");\r\n        return finalPrice;\r\n    }\r\n\r\n    function getDescriptionOfPriceFeed(address _token)\r\n        public\r\n        view\r\n        validPriceFeed(_token)\r\n        returns (string memory)\r\n    {        \r\n        AggregatorV2V3Interface priceFeed = _getAggregatorV2V3Interface(_token);\r\n        return priceFeed.description();\r\n    }\r\n\r\n    function getDecimalsOfPriceFeed(address _token)\r\n        public\r\n        view\r\n        validPriceFeed(_token)\r\n        returns (uint8)\r\n    {\r\n        return _getAggregatorV2V3Interface(_token).decimals();\r\n    }\r\n\r\n    function getVersionOfPriceFeed(address _token)\r\n        public\r\n        view\r\n        validPriceFeed(_token)\r\n        returns (uint256)\r\n    {\r\n        return _getAggregatorV2V3Interface(_token).version();\r\n    }\r\n\r\n    function getLatestAnswer(address _token)\r\n        public\r\n        view\r\n        validPriceFeed(_token)\r\n        returns (int256)\r\n    {\r\n        return _getAggregatorV2V3Interface(_token).latestAnswer();\r\n    }\r\n\r\n    function pauseContract(bool _state) public onlyOwner returns (bool) {\r\n        contract_paused = _state;\r\n        return contract_paused;\r\n    }\r\n\r\n    function _getConvertPrice(address _token) internal view returns (int256) {\r\n        int256 price = int256(getOriginalOraclePrice(_token));\r\n        return price;\r\n    }\r\n\r\n    function _validDecimals(uint8 _decimals) internal pure returns (bool) {\r\n        if (18 - _decimals <= 18) {\r\n            return true;\r\n        } else {\r\n            return false;\r\n        }\r\n    }\r\n\r\n    ///Interfaces helper for redundant Code\r\n    function _getAggregatorV2V3Interface(address _token)\r\n        private\r\n        view\r\n        returns (AggregatorV2V3Interface)\r\n    {\r\n        address priceFeedAddress = tokenPriceFeedMapping[_token];\r\n        AggregatorV2V3Interface aggregator = AggregatorV2V3Interface(\r\n            priceFeedAddress\r\n        );\r\n        return aggregator;\r\n    }\r\n\r\n    function getPriceFeedByToken(address _token)\r\n        public\r\n        view\r\n        validPriceFeed(_token)\r\n        returns (address)\r\n    {        \r\n        return tokenPriceFeedMapping[_token];\r\n    }\r\n\r\n    function _isValidPriceFeed(address _token) internal view returns (bool) {        \r\n        if (tokenPriceFeedMapping[_token] != address(0)) {\r\n            return true;\r\n        } else {\r\n            return false;\r\n        }\r\n    }\r\n\r\n    function getOwner() public view returns(address){\r\n        return owner;\r\n    }\r\n    //Modifiers\r\n    modifier validPriceFeed(address _token) {\r\n        require(_token != address(0), \"No Address 0\");\r\n        require(_isValidPriceFeed(_token) == true, \"Not valid token\");\r\n        _;\r\n    }\r\n\r\n    modifier contractPaused() {\r\n        require(contract_paused == false, \"Contract Paused\");\r\n        _;\r\n    }\r\n\r\n    modifier onlyOwner(){\r\n        require(msg.sender == owner, \"Only Owner\");\r\n        _;\r\n    }\r\n}\r\n",
  "sourcePath": "E:\\eth\\moralis-front-fabric\\moralis-biconomy-metatransactions\\Truffle\\contracts\\OneClickOracle.sol",
  "compiler": {
    "name": "solc",
    "version": "0.8.0+commit.c7dfd78e.Emscripten.clang"
  },
  "schemaVersion": "3.4.4",
  "updatedAt": "2022-01-09T22:37:24.756Z",
  "devdoc": {
    "kind": "dev",
    "methods": {
      "getOraclePrice(address)": {
        "details": "the token address have must be added before",
        "params": {
          "_token": "a parameter just like in doxygen (must be followed by parameter name)"
        }
      }
    },
    "version": 1
  },
  "userdoc": {
    "kind": "user",
    "methods": {
      "getOraclePrice(address)": {
        "notice": "Returns Oracle Price for Token saved in <tokenPriceFeedMapping>"
      }
    },
    "version": 1
  }
}