{
  "contractName": "TrustedCaller",
  "abi": [
    {
      "inputs": [
        {
          "internalType": "address",
          "name": "_trustedCaller",
          "type": "address"
        }
      ],
      "stateMutability": "nonpayable",
      "type": "constructor"
    },
    {
      "inputs": [
        {
          "internalType": "address",
          "name": "",
          "type": "address"
        }
      ],
      "name": "isTrustedCaller",
      "outputs": [
        {
          "internalType": "bool",
          "name": "",
          "type": "bool"
        }
      ],
      "stateMutability": "view",
      "type": "function"
    },
    {
      "inputs": [
        {
          "internalType": "uint256",
          "name": "",
          "type": "uint256"
        }
      ],
      "name": "trustedCallers",
      "outputs": [
        {
          "internalType": "address",
          "name": "",
          "type": "address"
        }
      ],
      "stateMutability": "view",
      "type": "function"
    },
    {
      "inputs": [
        {
          "internalType": "address",
          "name": "_trustedCaller",
          "type": "address"
        }
      ],
      "name": "addTrustedCaller",
      "outputs": [],
      "stateMutability": "nonpayable",
      "type": "function"
    },
    {
      "inputs": [
        {
          "internalType": "address",
          "name": "_callerAddress",
          "type": "address"
        }
      ],
      "name": "removeTrustedCaller",
      "outputs": [],
      "stateMutability": "nonpayable",
      "type": "function"
    },
    {
      "inputs": [],
      "name": "getAlltrustedCallers",
      "outputs": [
        {
          "internalType": "address[]",
          "name": "",
          "type": "address[]"
        }
      ],
      "stateMutability": "view",
      "type": "function"
    },
    {
      "inputs": [],
      "name": "getowner",
      "outputs": [
        {
          "internalType": "address",
          "name": "",
          "type": "address"
        }
      ],
      "stateMutability": "view",
      "type": "function"
    }
  ],
  "bytecode": "0x608060405234801561001057600080fd5b506040516107ca3803806107ca83398101604081905261002f916100a2565b600080546001600160a01b039092166001600160a01b031992831681178255808252600260205260408220805460ff191660019081179091558054808201825592527fb10e2d527612073b26eecdfd717e6a320cf44b4afac2b0732d9fcbe2b7fa0cf690910180549092161790556100d0565b6000602082840312156100b3578081fd5b81516001600160a01b03811681146100c9578182fd5b9392505050565b6106eb806100df6000396000f3fe608060405234801561001057600080fd5b50600436106100625760003560e01c80631fbd2822146100675780635fb67b19146100905780637477b6c9146100b0578063936c6f36146100c5578063c4aa1f63146100da578063fe0174bd146100ed575b600080fd5b61007a610075366004610471565b6100f5565b6040516100879190610518565b60405180910390f35b6100a361009e36600461049f565b61010a565b60405161008791906104b7565b6100b8610134565b60405161008791906104cb565b6100d86100d3366004610471565b610196565b005b6100d86100e8366004610471565b610375565b6100a3610462565b60026020526000908152604090205460ff1681565b6001818154811061011a57600080fd5b6000918252602090912001546001600160a01b0316905081565b6060600180548060200260200160405190810160405280929190818152602001828054801561018c57602002820191906000526020600020905b81546001600160a01b0316815260019091019060200180831161016e575b5050505050905090565b6000546001600160a01b031633146101c95760405162461bcd60e51b81526004016101c090610523565b60405180910390fd5b6001600160a01b03811660009081526002602052604090205460ff166101ee57600080fd5b600180541161020f5760405162461bcd60e51b81526004016101c0906105c1565b60005b816001600160a01b03166001828154811061023d57634e487b7160e01b600052603260045260246000fd5b6000918252602090912001546001600160a01b03161461028b576001548114156102795760405162461bcd60e51b81526004016101c090610629565b8061028381610684565b915050610212565b6001805461029a90829061066d565b815481106102b857634e487b7160e01b600052603260045260246000fd5b600091825260209091200154600180546001600160a01b0390921691839081106102f257634e487b7160e01b600052603260045260246000fd5b600091825260208083209190910180546001600160a01b0319166001600160a01b039485161790559184168152600290915260409020805460ff19169055600180548061034f57634e487b7160e01b600052603160045260246000fd5b600082815260209020810160001990810180546001600160a01b03191690550190555050565b6000546001600160a01b0316331461039f5760405162461bcd60e51b81526004016101c090610523565b6001600160a01b0381166103c55760405162461bcd60e51b81526004016101c090610547565b6001600160a01b03811660009081526002602052604090205460ff16156103fe5760405162461bcd60e51b81526004016101c090610591565b6001805480820182557fb10e2d527612073b26eecdfd717e6a320cf44b4afac2b0732d9fcbe2b7fa0cf60180546001600160a01b039093166001600160a01b031990931683179055600091825260026020526040909120805460ff19169091179055565b6000546001600160a01b031690565b600060208284031215610482578081fd5b81356001600160a01b0381168114610498578182fd5b9392505050565b6000602082840312156104b0578081fd5b5035919050565b6001600160a01b0391909116815260200190565b6020808252825182820181905260009190848201906040850190845b8181101561050c5783516001600160a01b0316835292840192918401916001016104e7565b50909695505050505050565b901515815260200190565b6020808252600a908201526927b7363c9037bbb732b960b11b604082015260600190565b6020808252602a908201527f547275737465642063616c6c6572206d75737420626520213d207468616e20306040820152697830206164647265737360b01b606082015260800190565b60208082526016908201527521b0b63632b91030b63932b0b23c9032bc34b9ba399760511b604082015260600190565b60208082526042908201527f43616e206e6f742072656d6f766520616c6c207472757374656443616c6c657260408201527f732073696e636520636f6e7472616374206265636f6d657320756e757361626c606082015261329760f11b608082015260a00190565b60208082526024908201527f5061737365642063616c6c6572206164647265737320646f6573206e6f7420656040820152631e1a5cdd60e21b606082015260800190565b60008282101561067f5761067f61069f565b500390565b60006000198214156106985761069861069f565b5060010190565b634e487b7160e01b600052601160045260246000fdfea2646970667358221220e6523bfd26e31926fd89a14c5d3348c8041ea1eabe4e72584b232678431fae7964736f6c63430008000033",
  "immutableReferences": {},
  "source": "//SPDX-License-Identifier: UNLICENSED\r\npragma solidity 0.8.0;\r\n\r\ncontract TrustedCaller {\r\n    address private owner;\r\n    // Listing all trustedCallers\r\n    address[] public trustedCallers;\r\n\r\n    // Modifier for easier checking if user is admin\r\n    mapping(address => bool) public isTrustedCaller;\r\n\r\n    // Modifier restricting access to only owner\r\n    modifier onlyOwner() {\r\n        require(msg.sender == owner, \"Only owner\");\r\n        _;\r\n    }\r\n\r\n    // Constructor to set initial trustedCallers during deployment\r\n    constructor(address _trustedCaller) {\r\n        owner = _trustedCaller;\r\n        isTrustedCaller[_trustedCaller] = true;\r\n        trustedCallers.push(_trustedCaller);\r\n    }\r\n\r\n    function addTrustedCaller(address _trustedCaller)\r\n        external\r\n        onlyOwner\r\n    {\r\n        // Can't add 0x address as an caller\r\n        require(\r\n            _trustedCaller != address(0x0),\r\n            \"Trusted caller must be != than 0x0 address\"\r\n        );\r\n        // Can't add existing caller\r\n        require(!isTrustedCaller[_trustedCaller], \"Caller already exists.\");\r\n        // Add caller to array of trustedCallers\r\n        trustedCallers.push(_trustedCaller);\r\n        // Set mapping\r\n        isTrustedCaller[_trustedCaller] = true;\r\n    }\r\n\r\n    function removeTrustedCaller(address _callerAddress) external onlyOwner {\r\n        // Caller has to exist\r\n        require(isTrustedCaller[_callerAddress]);\r\n        require(\r\n            trustedCallers.length > 1,\r\n            \"Can not remove all trustedCallers since contract becomes unusable.\"\r\n        );\r\n        uint256 i;\r\n\r\n        while (trustedCallers[i] != _callerAddress) {\r\n            if (i == trustedCallers.length) {\r\n                revert(\"Passed caller address does not exist\");\r\n            }\r\n            i++;\r\n        }\r\n\r\n        // Copy the last caller position to the current index\r\n        trustedCallers[i] = trustedCallers[trustedCallers.length - 1];\r\n\r\n        isTrustedCaller[_callerAddress] = false;\r\n\r\n        // Remove the last caller, since it's double present\r\n        trustedCallers.pop();\r\n    }\r\n\r\n    // Fetch all trustedCallers\r\n    function getAlltrustedCallers() external view returns (address[] memory) {\r\n        return trustedCallers;\r\n    }\r\n\r\n    function getowner() public view returns(address){\r\n        return owner;\r\n    }\r\n\r\n\r\n}\r\n",
  "sourcePath": "E:\\eth\\moralis-front-fabric\\moralis-biconomy-metatransactions\\truffle\\contracts\\TrustedCaller.sol",
  "compiler": {
    "name": "solc",
    "version": "0.8.0+commit.c7dfd78e.Emscripten.clang"
  },
  "schemaVersion": "3.4.4",
  "updatedAt": "2022-01-30T21:43:04.695Z",
  "devdoc": {
    "kind": "dev",
    "methods": {},
    "version": 1
  },
  "userdoc": {
    "kind": "user",
    "methods": {},
    "version": 1
  }
}